:020000040800F2
:1000000000500020491A0008691800086F180008FD
:10001000751800087B18000881180008000000000F
:10002000000000000000000000000000E176000871
:100030008718000800000000E17700082978000810
:10004000911A0008911A0008911A0008911A0008E4
:10005000911A0008911A0008911A0008911A0008D4
:10006000911A0008911A0008911A0008911A0008C4
:10007000911A0008911A0008911A0008911A0008B4
:10008000911A0008911A0008911A0008911A0008A4
:1000900095180008911A0008911A0008911A000892
:1000A000911A0008911A0008911A0008911A000884
:1000B0001D940008911A0008A9180008911A000858
:1000C000911A0008911A0008911A0008911A000864
:1000D000911A0008911A0008911A0008911A000854
:1000E000911A0008911A0008911A000800000000F7
:1000F0000000000000000000000000000000000000
:0C01000000000000000000005FF808F1A3
:1001100000F1340191E838009C46A6464CF8045D95
:1001200090E8FF0FE54600BD90EC210B704700BF43
:1001300080EC210B704700BF90EC200B704700BF94
:1001400080EC200B704700BFD0EC200B704700BF45
:10015000C0EC200B704700BFF0EC0201F0EC021184
:10016000F0EC0221F0EC0231F0EC0241F0EC025133
:10017000F0EC0261F0EC0271F0EC0281F0EC029123
:10018000F0EC02A1F0EC02B1F0EC02C1F0EC02D113
:10019000F0EC02E1F0EC02F1704700BFE0EC02018C
:1001A000E0EC0211E0EC0221E0EC0231E0EC024173
:1001B000E0EC0251E0EC0261E0EC0271E0EC028163
:1001C000E0EC0291E0EC02A1E0EC02B1E0EC02C153
:1001D000E0EC02D1E0EC02E1E0EC02F1704700BF9C
:1001E000B0FC0181B0FC0191B0FC01A1B0FC01B1F7
:1001F000704700BFA0FC0181A0FC0191A0FC01A1FF
:10020000A0FC01B1704700BFEC4600B52DE90050DD
:100210002DE9FF1F4FF000032DE90C0001A90EF09E
:1002200067FBDDF840E012B0704700BFEC4600B558
:100230002DE900502DE9FF1F4FF000032DE90C00C0
:1002400001A90EF095FBDDF840E012B0704700BF49
:10025000EC4600B52DE900502DE9FF1F4FF00003DB
:100260002DE90C0001A90EF0A5FBDDF840E012B06D
:10027000704700BFEC4600B52DE900502DE9FF1F87
:100280004FF000032DE90C0001AB0EF065FBDDF82B
:1002900040E012B0704700BFEC4600B52DE90050B9
:1002A0002DE9FF1F4FF000032DE90C0001AA0EF00D
:1002B000DBFBDDF840E012B0704700BF80EA010CC4
:1002C0001CF0030F37D110F0030C20F0030021F0D5
:1002D000030150F8042B08BF51F8043B0ED08CF0FA
:1002E000030C6FF07F434FEACC0C23FA0CFC51F85F
:1002F000043B42EA0C0243EA0C0300BFA2F1013CBA
:100300009A4201BF2CEA020C1CF0803F50F8042BEB
:1003100051F8043BF2D04FEA02604FEA1222012862
:1003200028BFB0EB036F08BF1B0AF4D003F0FF0334
:10033000000EC01A704710F0030F0AD010F8012BFE
:1003400011F8013B012A28BF9A42F4D0A2EB030026
:1003500070474DF8045D50F8042B01F0030521F0BF
:10036000030151F8043B022D26D04DD822F07F45E1
:10037000B5EB132FA2F1013C2CEA020C0DD11CF0BD
:10038000803C08BF51F8043B0AD185EA0205B5EB71
:10039000036F0CD150F8042BE8E74FEA13235BE01E
:1003A0003CF07F4C54D10B784FEA126554E04FEA91
:1003B000126503F0FF034FE04FEA0245A2F1013C52
:1003C0004FEA15452CEA020CB5EB134F18D11CF07F
:1003D000803C08BF51F8043B07D185EA0205B5EB24
:1003E000034F09D150F8042BE6E75FEA0C4C2FD1FC
:1003F0000B884FEA12452FE04FEA03434FEA1245BC
:100400004FEA134328E000BF02F0FF05B5EB136F7E
:10041000A2F1013C2CEA020C0DD11CF0803C08BF7B
:1004200051F8043B0AD185EA0205B5EB032F0AD146
:1004300050F8042BE8E74FEA13630DE012F0FF0FCA
:1004400006D051F8043B4FEA122523F07F4303E026
:100450004FF0000020BC704705F0FF0203F0FF00E2
:10046000012828BF904204BF2D0A1B0AF4D0A2EB3A
:10047000000020BC704700BF844641EA000313F02F
:10048000030349D1403A23D30B6803604B684360B0
:100490008B688360CB68C3600B6903614B69436100
:1004A0008B698361CB69C3610B6A03624B6A4362E8
:1004B0008B6A8362CB6AC3620B6B03634B6B4363D0
:1004C0008B6B8363CB6BC36340304031403ADBD2EC
:1004D00030320BD30B6803604B6843608B688360DA
:1004E000CB68C36010301031103AF3D20C3205D310
:1004F00051F8043B40F8043B043AF9D2043208D0E6
:10050000D2071CBF11F8013B00F8013B01D30B8857
:1005100003806046704700BF082A13D38B07B1D011
:1005200010F00303AED0C3F10403D21ADB071CBFE3
:1005300011F8013B00F8013BA4D331F8023B20F84D
:10054000023B9FE7043AD9D3013A11F8013B00F886
:10055000013BF9D20B7803704B7843708B78837032
:100560006046704781F0004102E000BF83F0004325
:1005700030B54FEA41044FEA430594EA050F08BF3E
:1005800090EA020F1FBF54EA000C55EA020C7FEA02
:10059000645C7FEA655C00F0E2804FEA5454D4EB7F
:1005A0005555B8BF6D420CDD2C4480EA020281EA49
:1005B000030382EA000083EA010180EA020281EA81
:1005C0000303362D88BF30BD11F0004F4FEA0131D3
:1005D0004FF4801C4CEA113102D0404261EB4101E2
:1005E00013F0004F4FEA03334CEA133302D0524268
:1005F00063EB430394EA050F00F0A780A4F1010424
:10060000D5F1200E0DDB02FA0EFC22FA05F280185D
:1006100041F1000103FA0EF2801843FA05F3594143
:100620000EE0A5F120050EF1200E012A03FA0EFCC2
:1006300028BF4CF0020C43FA05F3C01851EBE371EC
:1006400001F0004507D54FF0000EDCF1000C7EEB09
:1006500000006EEB0101B1F5801F1BD3B1F5001F47
:100660000CD349085FEA30004FEA3C0C04F1010466
:100670004FEA445212F5800F80F09A80BCF1004F8F
:1006800008BF5FEA500C50F1000041EB045141EA11
:10069000050130BD5FEA4C0C404141EB0101013CDA
:1006A00028BFB1F5801FE9D291F0000F04BF0146C9
:1006B0000020B1FA81F308BF2033A3F10B03B3F19B
:1006C00020020CDA0C3208DD02F1140CC2F10C022B
:1006D00001FA0CF021FA02F10CE002F11402D8BF89
:1006E000C2F1200C01FA02F120FA0CFCDCBF41EA55
:1006F0000C019040E41AA2BF01EB0451294330BD24
:100700006FEA04041F3C1CDA0C340EDC04F1140400
:10071000C4F1200220FA04F001FA02F340EA0300D7
:1007200021FA04F345EA030130BDC4F10C04C4F11D
:10073000200220FA02F001FA04F340EA03002946FD
:1007400030BD21FA04F0294630BD94F0000F83F447
:10075000801306BF81F480110134013D4EE77FEA2A
:10076000645C18BF7FEA655C29D094EA050F08BF76
:1007700090EA020F05D054EA000C04BF1946104657
:1007800030BD91EA030F1EBF0021002030BD5FEA9B
:10079000545C05D14000494128BF41F0004130BDC3
:1007A00014F580043CBF01F5801130BD01F0004517
:1007B00045F0FE4141F470014FF0000030BD7FEA8A
:1007C000645C1ABF194610467FEA655C1CBF0B4685
:1007D000024650EA013406BF52EA033591EA030F9C
:1007E00041F4002130BD00BF90F0000F04BF002194
:1007F000704730B54FF4806404F132044FF00005C7
:100800004FF0000150E700BF90F0000F04BF00213F
:10081000704730B54FF4806404F1320410F00045A5
:1008200048BF40424FF000013EE700BF42004FEAA0
:10083000E2014FEA31014FEA02701FBF12F07F431D
:1008400093F07F4F81F06051704732F07F4208BFD4
:10085000704793F07F4F04BF41F40021704730B5DB
:100860004FF4607401F0004521F000411CE700BF27
:1008700050EA010208BF704730B54FF000050AE0AA
:1008800050EA010208BF704730B511F0004502D5AB
:10089000404261EB41014FF4806404F132045FEAAD
:1008A000915C3FF4D8AE4FF003025FEADC0C18BF56
:1008B00003325FEADC0C18BF033202EBDC02C2F148
:1008C000200300FA03FC20FA02F001FA03FE40EADA
:1008D0000E0021FA02F11444BDE600BF70B54FF0DE
:1008E000FF0C4CF4E06C1CEA11541DBF1CEA1355BC
:1008F00094EA0C0F95EA0C0F00F0DEF82C4481EA24
:10090000030621EA4C5123EA4C5350EA013518BF43
:1009100052EA033541F4801143F4801338D0A0FB30
:1009200002CE4FF00005E1FB02E506F00042E0FBDD
:1009300003E54FF00006E1FB03569CF0000F18BFE3
:100940004EF0010EA4F1FF04B6F5007F64F540748B
:1009500004D25FEA4E0E6D4146EB060642EAC6211E
:1009600041EA55514FEAC52040EA5E504FEACE2E8B
:10097000B4F1FD0C88BFBCF5E06F1ED8BEF1004F8E
:1009800008BF5FEA500E50F1000041EB045170BD0A
:1009900006F0004646EA010140EA020081EA03014E
:1009A000B4EB5C04C2BFD4EB0C0541EA045170BD4A
:1009B00041F480114FF0000E013C00F3AB8014F1C4
:1009C000360FDEBF002001F0004170BDC4F100040D
:1009D000203C35DA0C341BDC04F11404C4F120058E
:1009E00000FA05F320FA04F001FA05F240EA0200E9
:1009F00001F0004221F0004110EBD37021FA04F61F
:100A000042EB06015EEA430E08BF20EAD37070BDD8
:100A1000C4F10C04C4F1200500FA04F320FA05F037
:100A200001FA04F240EA020001F0004110EBD37039
:100A300041F100015EEA430E08BF20EAD37070BDA9
:100A4000C4F1200500FA05F24EEA020E20FA04F382
:100A500001FA05F243EA020321FA04F001F0004131
:100A600021FA04F220EA020000EBD3705EEA430EA2
:100A700008BF20EAD37070BD94F0000F0FD101F0D1
:100A80000046400041EB010111F4801F08BF013C0A
:100A9000F7D041EA060195F0000F18BF704703F048
:100AA0000046520043EB030313F4801F08BF013DCF
:100AB000F7D043EA0603704794EA0C0F0CEA13558B
:100AC00018BF95EA0C0F0CD050EA410618BF52EA45
:100AD0004306D1D181EA030101F000414FF000004B
:100AE00070BD50EA410606BF1046194652EA430659
:100AF00019D094EA0C0F02D150EA013613D195EACD
:100B00000C0F05D152EA03361CBF104619460AD114
:100B100081EA030101F0004141F0FE4141F470011E
:100B20004FF0000070BD41F0FE4141F4780170BD0E
:100B300070B54FF0FF0C4CF4E06C1CEA11541DBF73
:100B40001CEA135594EA0C0F95EA0C0F00F0A7F875
:100B5000A4EB050481EA030E52EA03354FEA0131A2
:100B600000F088804FEA03334FF0805545EA1313B5
:100B700043EA12634FEA022245EA111545EA10657D
:100B80004FEA00260EF000419D4208BF964244F114
:100B9000FD0404F5407402D25B084FEA3202B61A33
:100BA00065EB03055B084FEA32024FF480104FF407
:100BB000002CB6EB020E75EB030E22BFB61A75467B
:100BC00040EA0C005B084FEA3202B6EB020E75EB0E
:100BD000030E22BFB61A754640EA5C005B084FEA76
:100BE0003202B6EB020E75EB030E22BFB61A754643
:100BF00040EA9C005B084FEA3202B6EB020E75EB4E
:100C0000030E22BFB61A754640EADC0055EA060E0E
:100C100018D04FEA051545EA16754FEA06164FEA51
:100C2000C30343EA52734FEAC2025FEA1C1CC0D1FD
:100C300011F4801F0BD141EA00014FF000004FF08A
:100C4000004CB6E711F4801F04BF01430020B4F14B
:100C5000FD0C88BFBCF5E06F3FF6AFAEB5EB030C03
:100C600004BFB6EB020C5FEA500C50F1000041EB00
:100C7000045170BD0EF0004E4EEA113114EB5C04CD
:100C8000C2BFD4EB0C0541EA045170BD41F48011A0
:100C90004FF0000E013C90E645EA060E8DE60CEAA8
:100CA000135594EA0C0F08BF95EA0C0F3FF43BAFC5
:100CB00094EA0C0F0AD150EA01347FF434AF95EA7C
:100CC0000C0F7FF425AF104619462CE795EA0C0F60
:100CD00006D152EA03353FF4FDAE1046194622E72D
:100CE00050EA410618BF52EA43067FF4C5AE50EA07
:100CF00041047FF40DAF52EA43057FF4EBAE12E7F7
:100D00004FF0FF3C06E000BF4FF0010C02E000BFD7
:100D10004FF0010C4DF804CD4FEA410C7FEA6C5CBA
:100D20004FEA430C18BF7FEA6C5C1BD001B050EA5D
:100D3000410C0CBF52EA430C91EA030F02BF90EA48
:100D4000020F0020704710F1000F91EA030F58BF07
:100D5000994208BF90422CBFD8176FEAE37040F069
:100D6000010070474FEA410C7FEA6C5C02D150EA07
:100D7000013C07D14FEA430C7FEA6C5CD6D152EAC2
:100D8000033CD3D05DF8040B704700BF8446104687
:100D900062468C461946634600E000BF01B5FFF786
:100DA000B7FF002848BF10F1000F01BD4DF808ED56
:100DB000FFF7F4FF0CBF012000205DF808FB00BF27
:100DC0004DF808EDFFF7EAFF34BF012000205DF881
:100DD00008FB00BF4DF808EDFFF7E0FF94BF0120CE
:100DE00000205DF808FB00BF4DF808EDFFF7CEFFCF
:100DF00094BF012000205DF808FB00BF4DF808ED0E
:100E0000FFF7C4FF34BF012000205DF808FB00BFDE
:100E10004FEA410C7FEA6C5C02D150EA013C0AD1F6
:100E20004FEA430C7FEA6C5C02D152EA033C02D1E8
:100E30004FF0000070474FF0010070474FEA410249
:100E400012F5001215D211D56FF47873B3EB62521C
:100E500012D94FEAC12343F0004343EA505311F043
:100E6000004F23FA02F018BF404270474FF00000D5
:100E7000704750EA013005D111F0004008BF6FF013
:100E8000004070474FF00000704700BF0348044B1C
:100E9000834202D0034B03B11847704798090020E2
:100EA00098090020000000000548064B1B1AD90FC6
:100EB00001EBA301491002D0034B03B1184770475F
:100EC00098090020980900200000000010B5064C89
:100ED000237843B9FFF7DAFF044B13B10448AFF3AB
:100EE00000800123237010BD98090020000000003D
:100EF000245A010808B5054B1BB105490548AFF355
:100F00000080BDE80840FFF7CFBF00BF0000000031
:100F10009C090020245A010880B584B000AFF86015
:100F2000B9601346FB71FB6804330021184600F0DA
:100F3000F9FE074AFB681A60FB68FA799A72FB6847
:100F4000BA68DA60FB6818461037BD4680BD00BF3E
:100F5000905E010880B483B000AF78607B68DB6886
:100F60001A787B689B7A9A420CBF01230023DBB27C
:100F700018460C37BD4680BC704780B582B000AFC4
:100F800078607B680022DA717B6800221A727B68C5
:100F900000225A727B6804330021184600F0D1FE0B
:100FA00000BF0837BD4680BD80B582B000AF786015
:100FB0000B46FB707868FFF7CDFF0346002B04D08B
:100FC000FB78002B01D0012300E00023002B02D08E
:100FD0007B680122DA7100BF0837BD4680BD80B44E
:100FE00083B000AF78600B46FB707B68FA781A72AA
:100FF00000BF0C37BD4680BC704780B582B000AFE3
:1010000078600B46FB707868FFF7A4FF0346002B5F
:101010000BD07B685B7A83F00103DBB2002B04D03A
:10102000FB78002B01D0012300E00023002B0FD020
:101030007B6801225A727B6804330121184600F054
:1010400080FE7B689A7A7B68DB680132D2B21A70C4
:1010500000BF0837BD4680BD80B582B000AF786064
:10106000786800F01CF80346002B13D0786800F075
:1010700021F8034683F00103DBB2002B0AD0786825
:1010800000F023F8034683F00103DBB2002B01D00C
:10109000012300E0002318460837BD4680BD80B418
:1010A00083B000AF78607B68DB7918460C37BD46AB
:1010B00080BC704780B483B000AF78607B681B7AD7
:1010C00018460C37BD4680BC704780B483B000AF73
:1010D00078607B685B7A18460C37BD4680BC7047E9
:1010E00080B582B000AF78607B680433184600F0AA
:1010F00065FE034618460837BD4680BD80B582B000
:1011000000AF78607868FFF7E0FF0346002B01D05E
:1011100003231BE07868FFF7C2FF034683F0010357
:10112000DBB2002B01D0002310E07868FFF7C2FF8C
:101130000346002B01D0022308E07868FFF78CFFFC
:101140000346002B01D0012300E004231846083792
:10115000BD4680BD80B483B000AF7860044A7B6830
:101160001A607B6818460C37BD4680BC704700BFCC
:101170009C5E010880B584B000AFF860B9603B6048
:101180001346FB71FB68396818460BF0E9FEFB68F3
:101190001033FA79B9681846FFF7BEFEFB682033B2
:1011A0001846FFF7D7FF074AFB681A60064AFB6834
:1011B0001A61064AFB681A62FB6818461037BD467A
:1011C00080BD00BF645E0108785E0108845E01088E
:1011D00090B583B000AF78607B6810331846FFF796
:1011E00069FF0346002B1ED17C687B6810331846CC
:1011F000FFF732FF034683F00103DBB219462046B6
:101200000BF0A0FF7B6818460BF0BEFE7B6803F175
:1012100010047B6818460BF0C2FF034619462046AF
:10122000FFF7EBFE00E000BF0C37BD4690BDA0F11C
:101230002000FFF7CDBF80B582B000AF78607B683B
:1012400010331846FFF799FE7B6818460BF049FFEC
:1012500000BF0837BD4680BDA0F11000FFF7EBBF0F
:1012600080B500AF00F0AEFE00F007F800F06EF8B9
:101270000CF02EF908F032F8FEE780B594B000AF1C
:1012800007F128032822002118460EF075FD07F10A
:10129000140300221A605A609A60DA601A613B1DDA
:1012A00000221A605A609A60DA600123BB624FF430
:1012B0008033FB6200233B630123BB6302237B6417
:1012C0004FF48033BB644FF4E013FB6407F1280351
:1012D000184602F0F7FE0346002B14BF012300233B
:1012E000DBB2002B01D000F065F80F237B610223F5
:1012F000BB610023FB614FF480633B6200237B6290
:1013000007F114030221184603F05EF90346002B8F
:1013100014BF01230023DBB2002B01D000F04AF8F8
:1013200010237B6000233B613B1D184603F0F6FA57
:101330000346002B14BF01230023DBB2002B01D096
:1013400000F038F800BF5037BD4680BD80B483B090
:1013500000AF0E4B9B690D4A43F0200393610B4B8A
:101360009B6903F020037B607B68084B9B69074AFD
:1013700043F004039361054B9B6903F004033B6056
:101380003B6800BF0C37BD4680BC70470010024070
:1013900080B582B000AF78607B681B68044A9342D6
:1013A00001D100F025FE00BF0837BD4680BD00BF5B
:1013B0000008004080B400AF72B600BFFEE7000036
:1013C00080B500AF4FF4FA7300229049904800F0C6
:1013D00083FD4FF4FA7301228C498E4800F07CFDA6
:1013E0004FF4FA73022289498B4800F075FD4FF4DF
:1013F000FA7303228549894800F06EFD4FF4FA73B1
:1014000004228249864800F067FD4FF4FA730522F2
:101410007E49844800F060FD41F2883306227B4912
:10142000814800F059FD41F28833072277497F480F
:1014300000F052FD41F28833082274497C4800F0E4
:101440004BFD092271497B4800F05EFB0A226F497F
:10145000794800F059FB0F226C49784800F054FBA2
:1014600000227749774800F04FFB01227449764803
:1014700000F04AFB03227249744800F045FB042245
:101480006F49734800F040FB05226D49714800F038
:101490003BFB06226A49704800F036FB0722684988
:1014A0006E4800F031FB082265496D4800F02CFBC6
:1014B000092263496B4800F027FB0A2260496A4809
:1014C00000F022FB0B225E49684800F01DFB0C2255
:1014D0005B49674800F018FB0D226649664800F03A
:1014E00013FB44F6206165480BF0B2FF44F620611F
:1014F00063480BF0ADFF44F6206162480BF0A8FF93
:1015000041F2883160480BF001FF00225F496048DA
:10151000FFF702FD5F4B01225C495F48FFF72AFE9F
:1015200047F23053022259495C48FFF723FE032259
:1015300056495B48FFF7F0FC5A4B042253495A487E
:10154000FFF718FE052251495848FFF7E5FC002235
:1015500057495848FFF7E0FC4E4B01225449564882
:10156000FFF708FE47F23053022251495348FFF774
:1015700001FE03224E495248FFF7CEFC494B04229C
:101580004B495048FFF7F6FD052249494E48FFF701
:10159000C3FC00224D494E48FFF7BEFC3D4B0122E3
:1015A0004A494C48FFF7E6FD47F2305302224749CB
:1015B0004948FFF7DFFD032244494848FFF7ACFCE8
:1015C000384B042241494648FFF7D4FD05223F49E4
:1015D0004448FFF7A1FC002243494448FFF79CFC24
:1015E00043F69823012240494148FFF7C3FD0222F8
:1015F0003D494048FFF790FC00220121322006F0CF
:10160000FBFB03463C4A136000BF80BD000801405D
:10161000B4090020D8090020FC090020200A00207D
:10162000440A0020680A00208C0A0020B00A00202A
:10163000D40A0020F80A0020080B0020180B002014
:10164000000C0140280B0020380B0020480B002024
:10165000580B0020680B0020780B0020880B00201E
:10166000980B0020A80B0020B80B0020C80B00200E
:10167000D80B002000100140E80B0020F80B0020E0
:101680000C0C0020200C0020340C0020480C002002
:101690004C0C0020C0D401005C0C0020800C002009
:1016A000A40C002000709914B40C0020D80C002069
:1016B000E80C0020EC0C0020FC0C0020200D002089
:1016C000440D0020540D0020780D0020880D0020CE
:1016D0008C0D00209C0D0020C00D0020E40D00208A
:1016E000F40D0020180E0020280E00202C0E0020E3
:1016F0003C0E0020600E00207C0E002080B500AF64
:10170000FFF75EFE80BD000080B485B000AF154BD2
:101710009B69144A43F001039361124B9B6903F0E8
:101720000103BB60BB680F4BDB690E4A43F080537B
:10173000D3610C4BDB6903F080537B607B680A4B01
:101740005B68FB60FB6823F0E063FB60FB6843F0D1
:101750000073FB60044AFB68536000BF1437BD464A
:1017600080BC7047001002400000014080B58EB080
:1017700000AF78600023FB620023BB62002387F880
:101780003330344BDB69334A43F00403D361314BCC
:10179000DB6903F00403FB60FB6807F1100207F14B
:1017A00014031146184603F06BF83B6AFB62FB6AB0
:1017B000002B03D103F050F8786304E003F04CF8F9
:1017C00003465B007B637B6B234AA2FB03239B0CDA
:1017D000013BBB62214B224A1A60204B40F2E732A8
:1017E000DA601E4ABB6A53601C4B00221A611B4B15
:1017F00000229A60194B00229A61184803F044F9BC
:10180000034687F8333097F83330002B1BD1134849
:1018100003F092F9034687F8333097F83330002B02
:1018200011D11E2000F0D1FC7B680F2B08D80022BC
:1018300079681E2000F0ADFC0A4A7B68136002E064
:10184000012387F8333097F8333018463837BD46D0
:1018500080BD00BF0010024083DE1B43900E0020BD
:10186000000800402801002080B400AFFEE780B4EB
:1018700000AFFEE780B400AFFEE780B400AFFEE744
:1018800080B400AFFEE780B400AF00BFBD4680BCAF
:101890007047000080B500AF024800F0CAFF00BFEB
:1018A00080BD00BFEC40002080B500AF024803F0CF
:1018B00095F900BF80BD00BF900E002080B400AF3E
:1018C00001231846BD4680BC704780B582B000AF8A
:1018D000786039600EF0C8FB034616221A604FF09C
:1018E000FF3318460837BD4680BD80B582B000AFD3
:1018F00078604FF0FF317868FFF7E7FFFEE780B5CB
:1019000086B000AFF860B9607A6000237B610AE0BE
:10191000AFF300800146BB685A1CBA60CAB21A70A5
:101920007B6901337B617A697B689A42F0DB7B6873
:1019300018461837BD4680BD80B586B000AFF86048
:10194000B9607A6000237B6109E0BB685A1CBA6009
:101950001B781846AFF300807B6901337B617A699D
:101960007B689A42F1DB7B6818461837BD4680BD1C
:1019700080B483B000AF78604FF0FF3318460C3767
:10198000BD4680BC704780B483B000AF78603960DA
:101990003B684FF400525A60002318460C37BD468E
:1019A00080BC704780B483B000AF786001231846D4
:1019B0000C37BD4680BC704780B485B000AFF8607E
:1019C000B9607A60002318461437BD4680BC704762
:1019D00080B586B000AF7860144A154BD31A7B618E
:1019E0007B693B61134B1B68002B02D1114B124AE0
:1019F0001A60104B1A687B6813443A699A4207D2FE
:101A00000EF032FB03460C221A604FF0FF3309E060
:101A1000084B1B68FB60074B1A687B681344054A38
:101A20001360FB6818461837BD4680BD0050002083
:101A300000040000D80E00201049002080B400AF40
:101A400000BFBD4680BC7047FFF7F8FF0B480C494C
:101A50000C4A002302E0D458C4500433C4188C420A
:101A6000F9D3094A094C002301E013600432A24271
:101A7000FBD30EF0FFFAFFF7F3FB704700000020E6
:101A800098090020A86C010898090020104900203E
:101A9000FEE780B483B000AF78607B681B7918469E
:101AA0000C37BD4680BC704780B483B000AF78600F
:101AB0000B46FB707B68FA781A7100BF0C37BD4685
:101AC00080BC704780B483B000AF7860044A7B6804
:101AD0001A607B6818460C37BD4680BC704700BF53
:101AE0006C5F010880B582B000AF78607B681846F3
:101AF000FFF7E8FF034A7B681A607B6818460837DF
:101B0000BD4680BD5C5F010880B584B000AFF86061
:101B1000B9601346FB71FB680833FA79B968184657
:101B200000F0A6F8FB681846FFF7DCFF114AFB68D7
:101B30001A60FB79072B0BD8B868FB799B0041F240
:101B4000111202FA03F30122194600F06CF80CE0BE
:101B5000BB68181DFB79083B9B0041F2111202FA89
:101B600003F30122194600F05EF8FB6818461037AF
:101B7000BD4680BD4C5F010880B483B000AF786083
:101B80007B68DB68DB687A68127A114601228A403A
:101B90001340002B14BF01230023DBB218460C377F
:101BA000BD4680BC704780B582B000AF78600B4600
:101BB000FB707B68FA7811461846FFF775FFFB78D3
:101BC000002B0DD07B68DB681A697B681B7A19468D
:101BD00001238B4019467B68DB680A431A610CE0DD
:101BE0007B68DB685A697B681B7A194601238B4046
:101BF00019467B68DB680A435A610837BD4680BDD9
:101C000080B582B000AF78600B46FB707B681B68C4
:101C100004331B68FA781146786898477B68184641
:101C20000837BD4680BD80B586B000AFF860B960AA
:101C30007A60B8680AF034FA0346FB7597F91730F2
:101C4000002B11DBFB681A68BB68DB431A40FB689A
:101C50001A60FB681A6897F91730796801FA03F37C
:101C60001A43FB681A6000E000BF1837BD4680BD0C
:101C700080B485B000AFF860B9601346FB71FB68B3
:101C8000FA791A70FB68BA685A60FB790F2B01D990
:101C90000023FB71BB681D4A934206D11C4B9B6914
:101CA0001B4A43F0040393612AE0BB68194A93423C
:101CB00006D1174B9B69164A43F0080393611FE056
:101CC000BB68154A934206D1114B9B69104A43F0F9
:101CD0001003936114E0BB68104A934206D10C4B89
:101CE0009B690B4A43F02003936109E0BB680C4AEF
:101CF000934205D1064B9B69054A43F0400393612B
:101D0000FB6818461437BD4680BC70470008014088
:101D100000100240000C014000100140001401407E
:101D20000018014080B483B000AF78600B46FB70B0
:101D30007B68FA789A707B6818460C37BD4680BC81
:101D4000704780B483B000AF78600B46FB707B684F
:101D50009B78002B02D0012B0ED01BE0FB78002BD0
:101D600021D07B681B7883F00103DBB2002B1AD0F3
:101D70007B6801225A7016E0FB7883F00103DBB226
:101D8000002B12D07B681B78002B0ED07B680122C1
:101D90005A700AE07B681B78FA789A4206D07B6812
:101DA00001225A7002E000BF00E000BF7B68FA78B1
:101DB0001A7000BF0C37BD4680BC704780B485B038
:101DC00000AF78607B685B78FB737B6800225A7099
:101DD000FB7B18461437BD4680BC704780B586B083
:101DE00000AFF860B9601346FB71FB680433FA7901
:101DF000B9681846FFF73CFFFB681846FFF762FE1C
:101E00001C4AFB681A60FB799B00FB75FB79072B6A
:101E10000DD8B868FB7D0F2202FA03F31946FB7D4B
:101E2000082202FA03F31A4600F0B4F810E0FB7D32
:101E3000203BFB75BB68181DFB7D0F2202FA03F3E4
:101E40001946FB7D082202FA03F31A4600F0A2F8B5
:101E5000BB68DB68FA79012101FA02F21A43BB6818
:101E6000DA60FB6801221A73FB6818461837BD4612
:101E700080BD00BF6860010880B483B000AF7860A7
:101E80007B689B689B687A681279114601228A40B8
:101E90001340002B07D07B681B7B002B05D07B6891
:101EA0005B7B002B01D0012300E0002318460C3798
:101EB000BD4680BC704780B582B000AF78607B685B
:101EC0001B681B6878689847034683F00103DBB200
:101ED00018460837BD4680BD80B584B000AFF860B5
:101EE000B96011461A460B46FB711346BB80FB686E
:101EF000BA88114618460BF033F8FB681033FA79AC
:101F0000B9681846FFF76AFFFB6820331846FFF7E9
:101F100021F9074AFB681A60064AFB681A61064AFB
:101F2000FB681A62FB6818461037BD4680BD00BFCB
:101F30003C600108506001085C60010890B583B006
:101F400000AF78607C687B6810331846FFF794FF19
:101F50000346194620460BF0E1F87B6818460BF063
:101F600013F800BF0C37BD4690BDA0F12000FFF76D
:101F7000E5BF80B582B000AF78607B6818460BF093
:101F80000EF9034618460837BD4680BDA0F1100083
:101F9000FFF7EFBF80B485B000AFF860B9607A603A
:101FA000FB681A68BB68DB431A40FB681A60FB6871
:101FB0001A687B681A43FB681A6000BF1437BD4675
:101FC00080BC704780B500AF084B1B68074A43F0E0
:101FD00010031360032000F0D1F80F20FFF7C6FBB9
:101FE000FFF792FB0023184680BD00BF002002408F
:101FF00080B400AF054B1B781A46054B1B68134491
:10200000034A136000BFBD4680BC70472C0100200E
:10201000DC0E002080B400AF024B1B681846BD46A2
:1020200080BC7047DC0E002080B485B000AF7860C3
:102030007B6803F00703FB600C4BDB68BB60BA688E
:102040004FF6FF031340BB60FB681A02BB681343E3
:1020500043F0BF6343F40033BB60044ABB68D36002
:1020600000BF1437BD4680BC704700BF00ED00E0E4
:1020700080B400AF044BDB681B0A03F0070318466B
:10208000BD4680BC704700BF00ED00E080B483B067
:1020900000AF0346FB7197F90730002B0BDBFB7990
:1020A00003F01F02064997F907305B09012000FA87
:1020B00002F241F8232000BF0C37BD4680BC7047B8
:1020C00000E100E080B483B000AF03463960FB71EB
:1020D00097F90730002B0ADB3B68DAB20C4997F915
:1020E00007301201D2B20B4483F800230AE03B68A8
:1020F000DAB20849FB7903F00F03043B1201D2B2B4
:102100000B441A7600BF0C37BD4680BC704700BF39
:1021100000E100E000ED00E080B489B000AFF860BD
:10212000B9607A60FB6803F00703FB61FB69C3F1E8
:102130000703042B28BF0423BB61FB690433062B70
:1021400002D9FB69033B00E000237B614FF0FF32C3
:10215000BB6902FA03F3DA43BB681A407B699A4011
:102160004FF0FF317B6901FA03F3D9437B680B40E1
:10217000134318462437BD4680BC704780B582B0F3
:1021800000AF78607868FFF74FFF00BF0837BD46A3
:1021900080BD80B586B000AF0346B9607A60FB733E
:1021A00000237B61FFF764FF78617A68B96878691A
:1021B000FFF7B2FF024697F90F3011461846FFF7B6
:1021C00081FF00BF1837BD4680BD80B582B000AF2B
:1021D0000346FB7197F907301846FFF757FF00BF1A
:1021E0000837BD4680BD0000F0B587B000AFF8608D
:1021F000B960C7E900230123FB750023BB750023E9
:102200007B752F4B1B7E012B01D1022354E02C4BFD
:1022100001221A764CF2503000F0A8F80346FB7504
:10222000FB7D002B44D1FB68012B02D101237B7580
:1022300007E0FB68022B02D102237B7501E0042337
:102240007B750023BB752DE0BB7D5A00BB6802EB9C
:10225000030CBB7D1901D7E90023C1F12006A1F1D0
:10226000200022FA01F403FA06F6344323FA00F0C0
:10227000044323FA01F5A3B21946604600F05AF868
:102280004CF2503000F072F80346FB750D4B1B69A1
:102290000C4A23F001031361FB7D002B07D1BB7DAA
:1022A0000133BB75BA7D7B7D9A42CDD300E000BF80
:1022B000034B00221A76FB7D18461C37BD46F0BD45
:1022C000E00E00200020024080B483B000AF002365
:1022D000FB710D4B1B6903F08003002B0DD00A4BE3
:1022E0000A4A5A60084B0A4A5A60074B1B6903F0B6
:1022F0008003002B01D00123FB71FB7918460C37BA
:10230000BD4680BC704700BF0020024023016745E6
:10231000AB89EFCD80B400AF054B1B69044A43F095
:102320008003136100231846BD4680BC704700BF80
:102330000020024080B483B000AF78600B467B8001
:10234000084B0022DA61084B1B69074A43F001037E
:1023500013617B687A881A8000BF0C37BD4680BC49
:10236000704700BFE00E00200020024080B584B01E
:1023700000AF7860FFF74EFEF86010E07B68B3F1C5
:10238000FF3F0CD07B68002B07D0FFF743FE0246CF
:10239000FB68D31A7A689A4201D2032325E0154BD1
:1023A000DB6803F00103002BE8D1124BDB6803F07C
:1023B0002003002B02D00F4B2022DA600D4BDB688C
:1023C00003F01003002B0BD10A4BDB6903F0010370
:1023D000002B05D1074BDB6803F00403002B03D06F
:1023E00000F00AF8012300E0002318461037BD462C
:1023F00080BD00BF0020024080B483B000AF002346
:102400007B60234BDB6803F01003002B09D0214BCA
:10241000DB6943F002031F4AD3617B6843F010037A
:102420007B601B4BDB6803F00403002B09D0194BC6
:10243000DB6943F00103174AD3617B6843F004036F
:102440007B60134BDB6903F00103002B0BD0114BB6
:10245000DB6943F004030F4AD3610D4BDB690C4A7F
:1024600023F00103D3617B6840F20112934206D14D
:10247000074BDB69064A23F00103D36102E0044AFB
:102480007B68D36000BF0C37BD4680BC704700BF7F
:1024900000200240E00E002080B584B000AF7860DC
:1024A00039600123FB730023BB602F4B1B7E012B84
:1024B00001D1022353E02C4B01221A767B681B6862
:1024C000022B16D14CF25030FFF750FF0346002B81
:1024D00041D1012000F04CF84CF25030FFF746FF9C
:1024E0000346FB73214B1B69204A23F0040313614D
:1024F00031E04CF25030FFF739FF0346002B2AD170
:102500003B684FF0FF321A607B689B68BB6019E044
:10251000B86800F049F84CF25030FFF727FF034647
:10252000FB73124B1B69114A23F002031361FB7BFF
:10253000002B03D03B68BA681A600CE0BB6803F557
:102540008063BB607B68DB689A027B689B6813448E
:10255000BA689A42DCD3044B00221A76FB7B1846F9
:102560001037BD4680BD00BFE00E002000200240B5
:1025700080B483B000AF7860094B0022DA61094B68
:102580001B69084A43F004031361064B1B69054AA3
:1025900043F04003136100BF0C37BD4680BC704759
:1025A000E00E00200020024080B483B000AF7860CD
:1025B0000B4B0022DA610B4B1B690A4A43F0020302
:1025C0001361084A7B685361064B1B69054A43F057
:1025D0004003136100BF0C37BD4680BC704700BF8D
:1025E000E00E002000200240F0B58BB006AF78600E
:1025F0007B68002B01D10123F1E07B6893F8A932BD
:10260000DBB2002B06D17B68002283F8A822786811
:102610000BF066F97B68032283F8A9227B681B68AC
:10262000184602F0A1FC7B681B683B607E686D4623
:1026300006F110040FCC0FC523682B60331D0ECBA1
:10264000386802F06BFC0346002B05D07B68022241
:1026500083F8A9220123C2E07B681B680021184689
:1026600002F09CFC0023FB7340E0FB7B79685A1C62
:1026700013469B001344DB000B44013301221A7004
:10268000FB7B79685A1C13469B001344DB000B4408
:10269000FA7B1A70FB7B79685A1C13469B00134423
:1026A000DB000B44033300221A70FA7B796813466F
:1026B0009B001344DB000B44383300221A60FA7B82
:1026C000796813469B001344DB000B443C33002223
:1026D0001A60FA7B796813469B001344DB000B44B5
:1026E000403300221A60FB7B0133FB73FA7B7B686B
:1026F0005B689A42B9D30023FB7344E0FA7B7968A4
:1027000013469B001344DB000B4403F269130022C1
:102710001A70FA7B796813469B001344DB000B4464
:1027200003F5B473FA7B1A70FA7B796813469B0041
:102730001344DB000B4403F26B1300221A70FA7B84
:10274000796813469B001344DB000B4403F5BC730C
:1027500000221A60FA7B796813469B001344DB0061
:102760000B4403F5BE7300221A60FA7B79681346A6
:102770009B001344DB000B4403F5C07300221A6076
:10278000FB7B0133FB73FA7B7B685B689A42B5D3B2
:102790007B681B683B607E686D4606F110040FCCB9
:1027A0000FC523682B60331D0ECB386802F002FC86
:1027B0000346002B05D07B68022283F8A92201235F
:1027C0000DE07B68002283F824207B68012283F8D7
:1027D000A9227B681B68184604F083FE0023184674
:1027E0001437BD46F0BD80B582B000AF78607B681D
:1027F00093F8A832012B01D1022316E07B68012255
:1028000083F8A8227B681B68184602F097FB012119
:1028100078680BF0D8FA7B681B68184604F057FEFE
:102820007B68002283F8A822002318460837BD469B
:1028300080BD80B588B000AF78607B681B681846A3
:1028400004F059FEB861BB6903F40043002B03D0C8
:10285000786800F01BFB19E1BB6903F48063002B6F
:1028600013D07B681B68B3F844309AB27B681B684E
:1028700022F4806292B2A3F8442078680BF0ABF89F
:102880000021786800F005F900E1BB6903F480439A
:10289000002B0CD07B681B68B3F844309AB27B687D
:1028A0001B6822F4804292B2A3F84420EEE0BB6998
:1028B00003F40053002B0CD07B681B68B3F8443042
:1028C0009AB27B681B6822F4005292B2A3F84420AB
:1028D000DCE0BB6903F48053002B27D07B681B68C6
:1028E000B3F840309AB27B681B6822F0040292B2BF
:1028F000A3F840207B681B68B3F840309AB27B682D
:102900001B6822F0080292B2A3F8402078680BF00E
:102910009BF87B681B68B3F844309AB27B681B68ED
:1029200022F4805292B2A3F84420AFE0BB6903F4D2
:102930000063002B00F083800023FB7710E07B68AE
:102940001B681A46FB7F9B001A44FB7F128892B2D9
:102950005B0020333B4423F8182CFB7F0133FB77CB
:10296000FB7F072BEBD97B681B68B3F840309AB22A
:102970007B681B6842F0010292B2A3F840207B689A
:102980001B68B3F840309AB27B681B6822F00102E2
:1029900092B2A3F8402000BF7B681B68B3F84430B4
:1029A0009BB203F48063002BF6D07B681B68B3F8FE
:1029B00044309AB27B681B6822F4806292B2A3F81A
:1029C00044200023FB770FE0FB7F7A6812681146F2
:1029D000FA7F92000A445B0020333B4433F8183CF2
:1029E0001380FB7F0133FB77FB7F072BECD97B68E0
:1029F0001B68B3F840309AB27B681B6842F008024B
:102A000092B2A3F840207B681B68B3F844309AB2B6
:102A10007B681B6822F4006292B2A3F844207B68B2
:102A20001B68B3F840309AB27B681B6842F004021E
:102A300092B2A3F8402078680AF0ECFF26E0BB6968
:102A400003F40073002B0FD07B681B68B3F844308D
:102A50009AB27B681B6822F4007292B2A3F84420F9
:102A600078680AF0AAFF11E0BB6903F48073002BB9
:102A70000CD07B681B68B3F844309AB27B681B6843
:102A800022F4807292B2A3F8442000BF2037BD46E2
:102A900080BD80B582B000AF78600B46FB707B686C
:102AA00093F8A832012B01D1022313E07B680122A5
:102AB00083F8A8227B68FA7883F824207B681B6857
:102AC000FA781146184604F0EFFC7B68002283F880
:102AD000A822002318460837BD4680BD80B584B0C3
:102AE00000AF7860084611461A460346FB700B4655
:102AF0003B801346BB700023FB7297F90330002B19
:102B00000EDAFB7803F007035A1C13469B001344AC
:102B1000DB007A681344FB60FB6801225A700EE008
:102B2000FB7803F0070213469B001344DB0003F518
:102B3000B4737A681344FB60FB6800225A70FB7818
:102B400003F00703DAB2FB681A703A88FB681A616F
:102B5000FB68BA78DA70BB78022B02D1FB680022DE
:102B60001A717B6893F8A832012B01D102230EE081
:102B70007B68012283F8A8227B681B68F9681846E5
:102B800002F038FA7B68002283F8A822FB7A184604
:102B90001037BD4680BD80B584B000AF78600B466D
:102BA000FB7097F90330002B0EDAFB7803F0070374
:102BB0005A1C13469B001344DB007A681344FB60E5
:102BC000FB6801225A700EE0FB7803F007021346FF
:102BD0009B001344DB0003F5B4737A681344FB6075
:102BE000FB6800225A70FB7803F00703DAB2FB6837
:102BF0001A707B6893F8A832012B01D102230EE0F2
:102C00007B68012283F8A8227B681B68F968184654
:102C100002F0B0FD7B68002283F8A822002318464A
:102C20001037BD4680BD80B586B000AFF8607A60D1
:102C30003B600B46FB72FB7A03F0070213469B00D6
:102C40001344DB0003F5B473FA6813447B617B69BA
:102C50007A685A617B693A689A617B690022DA6115
:102C60007B6900225A70FB7A03F00703DAB27B69B2
:102C70001A70FB681B687969184602F067FF002329
:102C800018461837BD4680BD80B483B000AF786069
:102C90000B46FB70FB7803F00702796813469B0034
:102CA0001344DB000B4403F5C2731B6818460C3752
:102CB000BD4680BC704780B586B000AFF8607A60D2
:102CC0003B600B46FB72FB7A03F007035A1C13466A
:102CD0009B001344DB00FA6813447B617B697A68CC
:102CE0005A617B693A689A617B69012283F82420E2
:102CF0007B693A681A627B690022DA617B6901228A
:102D00005A70FB7A03F00703DAB27B691A70FB682A
:102D10001B687969184602F019FF00231846183716
:102D2000BD4680BD80B584B000AF78600B46FB70B7
:102D3000FB7803F007027B685B689A4201D90123A4
:102D40004CE097F90330002B0EDAFB7803F0070311
:102D50005A1C13469B001344DB007A681344FB6043
:102D6000FB6801225A700CE0FA7813469B0013446A
:102D7000DB0003F5B4737A681344FB60FB68002240
:102D80005A70FB6801229A70FB7803F00703DAB2ED
:102D9000FB681A707B6893F8A832012B01D10223DB
:102DA0001CE07B68012283F8A8227B681B68F96815
:102DB000184604F07CFAFB7803F00703002B08D1D7
:102DC0007B681A687B6803F52C731946104604F07B
:102DD000A1FB7B68002283F8A82200231846103745
:102DE000BD4680BD80B584B000AF78600B46FB70F7
:102DF000FB7803F00F027B685B689A4201D90123DC
:102E000040E097F90330002B0EDAFB7803F007035C
:102E10005A1C13469B001344DB007A681344FB6082
:102E2000FB6801225A700EE0FB7803F0070213469C
:102E30009B001344DB0003F5B4737A681344FB6012
:102E4000FB6800225A70FB6800229A70FB7803F03E
:102E50000703DAB2FB681A707B6893F8A832012B7B
:102E600001D102230EE07B68012283F8A8227B684F
:102E70001B68F968184604F06AFA7B68002283F838
:102E8000A822002318461037BD4680BD80B596B0F5
:102E900000AF7860BEE37B681B68B3F84430A7F8E6
:102EA0004E30B7F84E30DBB203F00F0387F84D30E9
:102EB00097F84D30002B40F07881B7F84E3003F092
:102EC0001003002B51D17B681B681B889BB223F435
:102ED000E14323F07003FB817B681A68FB896FEA8A
:102EE00043436FEA53439BB213807B6828337B656F
:102EF0007B681B68B3F850309BB21A467B6D1B7819
:102F0000DB00134402335B007A681268134403F554
:102F100080631B88C3F309027B6DDA617B6D5A699C
:102F20007B6DDB691A447B6D5A61002178680AF079
:102F30002AFD7B6893F82430DBB2002B00F06A8313
:102F40007B6D9B69002B40F065837B6893F8243090
:102F5000DBB263F07F03DAB27B681B68A3F84C2016
:102F60007B68002283F8242054E37B6803F5B47364
:102F70007B657B681B681B88A7F84A30B7F84A3026
:102F800003F40063002B34D07B681B68B3F8503027
:102F90009BB21A467B6D1B78DB00134406335B0043
:102FA0007A681268134403F580631B88C3F309022F
:102FB0007B6DDA617B6818687B6803F52C717B6D2B
:102FC000DA887B6DDB699BB204F0F5FA7B681B68DD
:102FD0001B889AB240F68F7313403B827B681B6854
:102FE0003A8A42F0800292B21A8078680AF09EFC17
:102FF00010E3B7F94A30002B80F20C837B681B6822
:103000001B889AB240F68F731340FB837B681B6862
:10301000FA8B42F0800292B21A807B681B68B3F888
:1030200050309BB21A467B6D1B78DB00134406338D
:103030005B007A681268134403F580631B88C3F34E
:1030400009027B6DDA617B6DDB69002B19D07B6D2A
:103050005B69002B15D07B6818687B6D59697B6DA7
:10306000DA887B6DDB699BB204F0A5FA7B6D5A6947
:103070007B6DDB691A447B6D5A61002178680AF028
:1030800067FC7B681B681B88A7F84A30B7F84A3092
:1030900003F40063002B40F0BD82B7F84A3003F41C
:1030A0004053B3F5405F00F0B5827B681B68BB619D
:1030B0007B681B68B3F850309BB21A46BB69134457
:1030C000BB61BB6903F20C437B617B691B889BB2CC
:1030D000C3F309039AB27B691A807B6D1B693E2B8F
:1030E0001DD97B6D1B695B097B647B6D1B6903F0DC
:1030F0001F03002B02D17B6C013B7B647B691B8827
:103100009AB27B6C9BB29B029BB213439BB26FEA59
:1031100043436FEA53439AB27B691A8026E07B6D82
:103120001B69002B0AD17B691B889BB26FEA434362
:103130006FEA53439AB27B691A8017E07B6D1B6973
:103140005B087B647B6D1B6903F00103002B02D0DD
:103150007B6C01337B647B691B889AB27B6C9BB26E
:103160009B029BB213439AB27B691A807B681B68EF
:103170001B889BB223F4804323F070037B827B8AFD
:1031800083F480537B827B8A83F400537B827B6849
:103190001A687B8A43F07F4343F47F0343F4004380
:1031A00043F080039BB2138034E27B681B681A46AD
:1031B00097F84D309B0013441B88A7F84A30B7F9A5
:1031C0004A30002B80F2FC807B681B681A4697F817
:1031D0004D309B0013441B889AB240F68F73134006
:1031E000A7F848307B681B681A4697F84D309B005B
:1031F0001344B7F8482042F0800292B21A8097F840
:103200004D2013469B001344DB0003F5B4737A682A
:1032100013447B657B6D1B7B002B25D17B681B6872
:10322000B3F850309BB21A467B6D1B78DB00134419
:1032300006335B007A681268134403F580631B88C9
:10324000C3F30903A7F85030B7F85030002B00F053
:1032500092807B6818687B6D59697B6DDA88B7F856
:10326000503004F0A8F986E07B6DDB78022B0AD1A0
:10327000B7F84A301A46796D786800F0D9F90346F4
:10328000A7F8503077E07B681B681A467B6D1B7887
:103290009B0013441B889BB223F4E04323F070038C
:1032A000A7F852307B681B681A467B6D1B789B0021
:1032B0001A44B7F8523043F07F4343F47F0343F49A
:1032C000004343F0C0039BB213807B681B681A461F
:1032D0007B6D1B789B0013441B889BB203F48043D7
:1032E000002B24D07B681B68B3F850309BB21A4681
:1032F0007B6D1B78DB00134402335B007A68126835
:10330000134403F580631B88C3F30903A7F8503007
:10331000B7F85030002B2ED07B6818687B6D596948
:103320007B6D1A89B7F8503004F045F923E07B68CB
:103330001B68B3F850309BB21A467B6D1B78DB00DC
:10334000134406335B007A681268134403F5806304
:103350001B88C3F30903A7F85030B7F85030002B8F
:1033600009D07B6818687B6D59697B6D5A89B7F8FD
:10337000503004F020F97B6DDA69B7F850301A4408
:103380007B6DDA617B6D5A69B7F850301A447B6DFA
:103390005A617B6D9B69002B05D0B7F850207B6D7F
:1033A0001B699A4206D27B6D1B78194678680AF031
:1033B000CFFA05E07B681B68796D184602F0C6FB02
:1033C000B7F84A3003F08003002B00F0238197F810
:1033D0004D305A1C13469B001344DB007A6813449B
:1033E0007B657B681B681A4697F84D309B00134439
:1033F0001B889BB223F4E14323F07003A7F842300B
:103400007B681B681A4697F84D309B001A44B7F842
:1034100042306FEA43436FEA53439BB213807B6DA4
:10342000DB78012B40F0A2807B6D00229A617B6DDE
:103430001B7B002B00F09380B7F84A3003F0400369
:10344000002B46D07B6D5B78002B26D17B681B68F8
:103450007B627B681B68B3F850309BB21A467B6A6C
:1034600013447B627B6D1B781A017B6A134403F261
:1034700004433B623B6A1B889BB2C3F309039AB2C5
:103480003B6A1A803B6A1B889BB26FEA43436FEA30
:1034900053439AB23B6A1A8061E07B6D5B78012BE3
:1034A0005DD17B681B68FB627B681B68B3F850309A
:1034B0009BB21A46FB6A1344FB627B6D1B781A01B0
:1034C000FB6A134403F20443BB62BB6A00221A8006
:1034D00045E07B681B68FB637B6D5B78002B26D126
:1034E0007B681B687B637B681B68B3F850309BB2BA
:1034F0001A467B6B13447B637B6D1B781A017B6BD5
:10350000134403F20C433B633B6B1B889BB2C3F336
:1035100009039AB23B6B1A803B6B1B889BB26FEA24
:1035200043436FEA53439AB23B6B1A8017E07B6DBB
:103530005B78012B13D17B681B68B3F850309BB2CA
:103540001A46FB6B1344FB637B6D1B781A01FB6B04
:10355000134403F20C43BB63BB6B00221A807B6DE8
:103560001B78194678680AF00EFA53E0B7F84A302B
:1035700003F48073002B46D17B681B68B3F850308E
:103580009BB21A467B6D1B78DB00134402335B0051
:103590007A681268134403F580631B88C3F3090338
:1035A000A7F840307B6D9A69B7F840309A4207D946
:1035B0007B6D9A69B7F84030D21A7B6D9A6102E050
:1035C0007B6D00229A617B6D9B69002B06D17B6D20
:1035D0001B78194678680AF0D6F91BE07B6D5A69AA
:1035E000B7F840301A447B6D5A617B6DDA69B7F8E1
:1035F00040301A447B6DDA617B681B68796D184630
:1036000002F0A4FA06E0B7F84A301A46796D7868F5
:1036100000F01BF97B681B68B3F844309BB21BB207
:10362000002BFFF638AC002318465837BD4680BD46
:1036300080B588B000AFF860B9601346FB80FB88A6
:1036400003F48043002B7ED0FB681B68B3F8503036
:103650009BB21A46BB681B78DB00134402335B0045
:10366000FA681268134403F580631B88C3F30903E7
:103670007B83BB689A697B8B9A4206D3BB689A6945
:103680007B8BD21ABB689A6102E0BB6800229A6108
:10369000BB689B69002B23D1FB681B681A46BB687B
:1036A0001B789B0013441B889BB223F4804323F0B8
:1036B00070033B833B8B83F400533B83FB681B68A5
:1036C0001A46BB681B789B001A443B8B43F07F4330
:1036D00043F47F0343F4004343F080039BB2138021
:1036E000FB8803F04003002B1FD0FB681B681A46C1
:1036F000BB681B789B0013441B889BB223F4E043F8
:1037000023F07003FB82FB681B681A46BB681B78BA
:103710009B001A44FB8A43F07F4343F47F0343F446
:10372000004343F0C0039BB213807B8B002B00F05F
:103730008780FB681868BB685969BB681A897B8BEE
:1037400003F039FF7CE0FB681B68B3F850309BB294
:103750001A46BB681B78DB00134406335B00FA682B
:103760001268134403F580631B88C3F309037B834A
:10377000BB689A697B8B9A4206D3BB689A697B8B3C
:10378000D21ABB689A6102E0BB6800229A61BB68EA
:103790009B69002B23D1FB681B681A46BB681B780A
:1037A0009B0013441B889BB223F4804323F07003D7
:1037B000FB83FB8B83F40053FB83FB681B681A4677
:1037C000BB681B789B001A44FB8B43F07F4343F498
:1037D0007F0343F4004343F080039BB21380FB88D4
:1037E00003F04003002B1FD1FB681B681A46BB681F
:1037F0001B789B0013441B889BB223F4E04323F007
:103800007003BB83FB681B681A46BB681B789B0070
:103810001A44BB8B43F07F4343F47F0343F40043DC
:1038200043F0C0039BB213807B8B002B08D0FB6856
:103830001868BB685969BB685A897B8B03F0BBFE6B
:103840007B8B18462037BD4680BD80B5A4B000AF45
:10385000F860B9601346FB80FB8803F04003002B3F
:1038600000F0DD81FB681B68B3F850309BB21A464C
:10387000BB681B78DB00134402335B00FA681268F4
:10388000134403F580631B88C3F30903A7F886304C
:10389000BB689A69B7F886309A4207D9BB689A69BB
:1038A000B7F88630D21ABB689A6102E0BB68002282
:1038B0009A61BB689B69002B40F0B980BB685B785C
:1038C000002B26D1FB681B68FB62FB681B68B3F802
:1038D00050309BB21A46FB6A1344FB62BB681B78EC
:1038E0001A01FB6A134403F20443BB62BB6A1B88E0
:1038F0009BB2C3F309039AB2BB6A1A80BB6A1B88E6
:103900009BB26FEA43436FEA53439AB2BB6A1A8091
:103910001AE0BB685B78012B16D1FB681B687B63E0
:10392000FB681B68B3F850309BB21A467B6B13449C
:103930007B63BB681B781A017B6B134403F204435F
:103940003B633B6B00221A80FB681B687B62BB6891
:103950005B78002B26D1FB681B68FB61FB681B684A
:10396000B3F850309BB21A46FB691344FB61BB6845
:103970001B781A01FB69134403F20C43BB61BB695A
:103980001B889BB2C3F309039AB2BB691A80BB6957
:103990001B889BB26FEA43436FEA53439AB2BB69F9
:1039A0001A8017E0BB685B78012B13D1FB681B689A
:1039B000B3F850309BB21A467B6A13447B62BB68F3
:1039C0001B781A017B6A134403F20C433B623B6A87
:1039D00000221A80BB681B781946F86809F0D3FFEB
:1039E000FB8803F48043002B00F0FC82FB681B681B
:1039F0001A46BB681B789B0013441B889BB223F4B8
:103A0000E04323F07003FB82FB681B681A46BB6827
:103A10001B789B001A44FB8A43F07F4343F47F03E7
:103A200043F4404343F080039BB21380DAE2FB8807
:103A300003F48043002B21D0FB681B681A46BB6847
:103A40001B789B0013441B889BB223F4E04323F0B4
:103A50007003A7F88A30FB681B681A46BB681B789E
:103A60009B001A44B7F88A3043F07F4343F47F0346
:103A700043F4404343F080039BB21380BB6893F848
:103A80002430012B40F0AE82BB685A69B7F886300B
:103A90001A44BB685A61BB68DA69B7F886301A44C1
:103AA000BB68DA61BB681A6ABB681B699A420BD3B0
:103AB000BB681B69C7F88C30BB681A6AD7F88C30B2
:103AC000D21ABB681A6217E0BB681B6A002B08D1C8
:103AD000B7F88630C7F88C30BB68002283F8242002
:103AE0000AE0BB68002283F82420BB681B6AC7F881
:103AF0008C30BB6800221A62BB685B78002B65D1F2
:103B0000FB681B68FB63FB681B68B3F850309BB213
:103B10001A46FB6B1344FB63BB681B781A01FB6BF3
:103B2000134403F20443BB63BB6B1B889BB2C3F318
:103B300009039AB2BB6B1A80D7F88C303E2B1DD983
:103B4000D7F88C305B09BB64D7F88C3003F01F03C7
:103B5000002B02D1BB6C013BBB64BB6B1B889AB2D0
:103B6000BB6C9BB29B029BB213439BB26FEA434375
:103B70006FEA53439AB2BB6B1A8044E0D7F88C309B
:103B8000002B0AD1BB6B1B889BB26FEA43436FEAE1
:103B900053439AB2BB6B1A8035E0D7F88C305B0880
:103BA000BB64D7F88C3003F00103002B02D0BB6C50
:103BB0000133BB64BB6B1B889AB2BB6C9BB29B028C
:103BC0009BB213439AB2BB6B1A801CE0BB685B7854
:103BD000012B18D1FB681B687B64FB681B68B3F87A
:103BE00050309BB21A467B6C13447B64BB681B78D5
:103BF0001A017B6C134403F204433B64D7F88C3006
:103C00009AB23B6C1A80FB681868BB685969BB683C
:103C10001A89D7F88C309BB203F087FCE2E1FB688D
:103C20001B68B3F850309BB21A46BB681B78DB00A8
:103C3000134406335B00FA681268134403F580638B
:103C40001B88C3F30903A7F88630BB689A69B7F8E5
:103C500086309A4207D3BB689A69B7F88630D21A81
:103C6000BB689A6102E0BB6800229A61BB689B69ED
:103C7000002B40F0C080BB685B78002B26D1FB682E
:103C80001B68FB67FB681B68B3F850309BB21A4691
:103C9000FB6F1344FB67BB681B781A01FB6F13446F
:103CA00003F20443BB67BB6F1B889BB2C3F30903DA
:103CB0009AB2BB6F1A80BB6F1B889BB26FEA4343FB
:103CC0006FEA53439AB2BB6F1A801AE0BB685B7805
:103CD000012B16D1FB681B687B66FB681B68B3F879
:103CE00050309BB21A467B6E13447B66BB681B78D0
:103CF0001A017B6E134403F204433B663B6E0022C1
:103D00001A80FB681B687B67BB685B78002B2BD134
:103D1000FB681B68FB66FB681B68B3F850309BB2FE
:103D20001A46FB6E1344FB66BB681B781A01FB6ED8
:103D3000134403F20C43C7F88030D7F880301B8857
:103D40009BB2C3F309039AB2D7F880301A80D7F830
:103D500080301B889BB26FEA43436FEA53439AB2A9
:103D6000D7F880301A8017E0BB685B78012B13D13D
:103D7000FB681B68B3F850309BB21A467B6F134444
:103D80007B67BB681B781A017B6F134403F20C43FB
:103D90003B673B6F00221A80BB681B781946F868A6
:103DA00009F0F1FDFB8803F48043002B40F01A81F9
:103DB000FB681B681A46BB681B789B0013441B8872
:103DC0009BB223F4E04323F07003A7F88830FB682C
:103DD0001B681A46BB681B789B001A44B7F88830EA
:103DE00043F07F4343F47F0343F4404343F08003B5
:103DF0009BB21380F6E0FB8803F48043002B21D1B3
:103E0000FB681B681A46BB681B789B0013441B8821
:103E10009BB223F4E04323F07003A7F84E30FB6815
:103E20001B681A46BB681B789B001A44B7F84E30D3
:103E300043F07F4343F47F0343F4404343F0800364
:103E40009BB21380BB6893F82430012B40F0CA80EA
:103E5000BB685A69B7F886301A44BB685A61BB68B8
:103E6000DA69B7F886301A44BB68DA61BB681A6A47
:103E7000BB681B699A420BD3BB681B69C7F88C30BF
:103E8000BB681A6AD7F88C30D21ABB681A6217E07E
:103E9000BB681B6A002B08D1B7F88630C7F88C3096
:103EA000BB68002283F824200AE0BB681B6AC7F8BD
:103EB0008C30BB6800221A62BB68002283F8242081
:103EC000FB681B687B65BB685B78002B65D1FB6872
:103ED0001B68FB65FB681B68B3F850309BB21A4641
:103EE000FB6D1344FB65BB681B781A01FB6D134423
:103EF00003F20C43BB65BB6D1B889BB2C3F3090384
:103F00009AB2BB6D1A80D7F88C303E2B1DD9D7F8EA
:103F10008C305B09BB66D7F88C3003F01F03002B95
:103F200002D1BB6E013BBB66BB6D1B889AB2BB6EF8
:103F30009BB29B029BB213439BB26FEA43436FEA6F
:103F400053439AB2BB6D1A8041E0D7F88C30002BF6
:103F50000AD1BB6D1B889BB26FEA43436FEA5343A0
:103F60009AB2BB6D1A8032E0D7F88C305B08BB6622
:103F7000D7F88C3003F00103002B02D0BB6E013365
:103F8000BB66BB6D1B889AB2BB6E9BB29B029BB299
:103F900013439AB2BB6D1A8019E0BB685B78012BA2
:103FA00015D1FB681B68B3F850309BB21A467B6D85
:103FB00013447B65BB681B781A017B6D134403F2C5
:103FC0000C433B65D7F88C309AB23B6D1A80FB6886
:103FD0001868BB685969BB685A89D7F88C309BB29E
:103FE00003F0A3FAFB681B681A46BB681B789B00AA
:103FF00013441B889BB223F4E04323F04003BB82AD
:10400000BB8A83F01003BB82BB8A83F02003BB8290
:10401000FB681B681A46BB681B789B001A44BB8A66
:1040200043F07F4343F47F0343F4004343F08003B2
:104030009BB21380002318469037BD4680BD80B4E4
:1040400087B000AFF8607B600B467B8113463B81F5
:104050007B8903F080039BB2002B0BD07B8903F09C
:1040600007035A1C13469B001344DB00FA681344F1
:104070007B6109E07A8913469B001344DB0003F55A
:10408000B473FA6813447B613B89002B07D17B69C9
:1040900000221A737B689AB27B69DA800BE07B6935
:1040A00001221A737B689AB27B691A817B681B0CA8
:1040B0009AB27B695A81002318461C37BD4680BCE2
:1040C0007047000080B586B000AF78607B68002B39
:1040D00001D1012372E27B681B6803F00103002B0E
:1040E00000F08780924B5B6803F00C03042B0CD02C
:1040F0008F4B5B6803F00C03082B12D18C4B5B6871
:1041000003F48033B3F5803F0BD1894B1B6803F474
:104110000033002B6CD07B685B68002B68D10123D7
:104120004CE27B685B68B3F5803F06D1804B1B682F
:104130007F4A43F4803313602EE07B685B68002B7A
:104140000CD17B4B1B687A4A23F480331360784B85
:104150001B68774A23F4802313601DE07B685B684B
:10416000B3F5A02F0CD1724B1B68714A43F4802326
:1041700013606F4B1B686E4A43F4803313600BE08F
:104180006B4B1B686A4A23F480331360684B1B68CF
:10419000674A23F4802313607B685B68002B13D08D
:1041A000FDF738FF386108E0FDF734FF02463B6950
:1041B000D31A642B01D9032300E25D4B1B6803F47F
:1041C0000033002BF0D014E0FDF724FF386108E045
:1041D000FDF720FF02463B69D31A642B01D9032364
:1041E000ECE1534B1B6803F40033002BF0D100E0EB
:1041F00000BF7B681B6803F00203002B63D04C4BAD
:104200005B6803F00C03002B0BD0494B5B6803F099
:104210000C03082B1CD1464B5B6803F48033002B46
:1042200016D1434B1B6803F00203002B05D07B68BB
:104230001B69012B01D00123C0E13D4B1B6823F01A
:10424000F8027B685B69DB00394913430B603AE095
:104250007B681B69002B20D0364B01221A60FDF7CA
:10426000D9FE386108E0FDF7D5FE02463B69D31A56
:10427000022B01D90323A1E12D4B1B6803F002039C
:10428000002BF0D02A4B1B6823F0F8027B685B6997
:10429000DB00274913430B6015E0264B00221A6010
:1042A000FDF7B8FE386108E0FDF7B4FE02463B6951
:1042B000D31A022B01D9032380E11D4B1B6803F0A5
:1042C0000203002BF0D17B681B6803F00803002B6E
:1042D0003AD07B689B69002B19D0174B01221A60DA
:1042E000FDF798FE386108E0FDF794FE02463B6951
:1042F000D31A022B01D9032360E10D4B5B6A03F053
:104300000203002BF0D0012000F0EAFA1CE00A4B77
:1043100000221A60FDF77EFE38610FE0FDF77AFE9D
:1043200002463B69D31A022B08D9032346E100BF9A
:10433000001002400000424280044242924B5B6AFD
:1043400003F00203002BE9D17B681B6803F0040330
:10435000002B00F0A6800023FB758B4BDB6903F07C
:104360008053002B0DD1884BDB69874A43F0805383
:10437000D361854BDB6903F08053BB60BB680123CD
:10438000FB75824B1B6803F48073002B18D17F4BA5
:104390001B687E4A43F480731360FDF73BFE38616F
:1043A00008E0FDF737FE02463B69D31A642B01D9BA
:1043B000032303E1754B1B6803F48073002BF0D0DB
:1043C0007B68DB68012B06D16F4B1B6A6E4A43F09A
:1043D000010313622DE07B68DB68002B0CD16A4B74
:1043E0001B6A694A23F001031362674B1B6A664A22
:1043F00023F0040313621CE07B68DB68052B0CD1FF
:10440000614B1B6A604A43F0040313625E4B1B6AF4
:104410005D4A43F0010313620BE05B4B1B6A5A4A8F
:1044200023F001031362584B1B6A574A23F004031D
:1044300013627B68DB68002B15D0FDF7EBFD38615C
:104440000AE0FDF7E7FD02463B69D31A41F28832E4
:10445000934201D90323B1E04B4B1B6A03F00203E3
:10446000002BEED014E0FDF7D5FD38610AE0FDF732
:10447000D1FD02463B69D31A41F28832934201D9F9
:1044800003239BE0404B1B6A03F00203002BEED199
:10449000FB7D012B05D13C4BDB693B4A23F080536C
:1044A000D3617B68DB69002B00F08780364B5B684B
:1044B00003F00C03082B61D07B68DB69022B46D12B
:1044C000334B00221A60FDF7A5FD386108E0FDF7C7
:1044D000A1FD02463B69D31A022B01D903236DE0EB
:1044E000294B1B6803F00073002BF0D17B681B6A1B
:1044F000B3F5803F08D1244B5B6823F400327B681E
:104500009B68214913434B601F4B5B6823F4741273
:104510007B68196A7B685B6A0B431B4913434B60DA
:104520001B4B01221A60FDF775FD386108E0FDF7AD
:1045300071FD02463B69D31A022B01D903233DE0EA
:10454000114B1B6803F00073002BF0D035E0104BCB
:1045500000221A60FDF75EFD386108E0FDF75AFDA4
:1045600002463B69D31A022B01D9032326E0064BEE
:104570001B6803F00073002BF0D11EE07B68DB6941
:10458000012B07D1012319E0001002400070004008
:10459000600042420B4B5B68FB60FB6803F48032B7
:1045A0007B681B6A9A4206D1FB6803F470127B6831
:1045B0005B6A9A4201D0012300E0002318461837B5
:1045C000BD4680BD0010024080B584B000AF786069
:1045D00039607B68002B01D10123D0E06A4B1B6856
:1045E00003F007033A689A4210D9674B1B6823F01F
:1045F000070265493B6813430B60634B1B6803F07C
:1046000007033A689A4201D00123B8E07B681B682F
:1046100003F00203002B20D07B681B6803F0040327
:10462000002B05D0594B5B68584A43F4E063536054
:104630007B681B6803F00803002B05D0534B5B68B5
:10464000524A43F460535360504B5B6823F0F002CE
:104650007B689B684D4913434B607B681B6803F084
:104660000103002B40D07B685B68012B07D1474BCF
:104670001B6803F40033002B15D101237FE07B6816
:104680005B68022B07D1414B1B6803F00073002BC2
:1046900009D1012373E03D4B1B6803F00203002B9B
:1046A00001D101236BE0394B5B6823F003027B6887
:1046B0005B68364913434B60FDF7ACFCF8600AE0D9
:1046C000FDF7A8FC0246FB68D31A41F288329342F8
:1046D00001D9032353E02D4B5B6803F00C027B6888
:1046E0005B689B009A42EBD1274B1B6803F00703E2
:1046F0003A689A4210D2244B1B6823F007022249E1
:104700003B6813430B60204B1B6803F007033A68B8
:104710009A4201D0012332E07B681B6803F0040356
:10472000002B08D0194B5B6823F4E0627B68DB68E0
:10473000164913434B607B681B6803F00803002B8A
:1047400009D0124B5B6823F460527B681B69DB0065
:104750000E4913434B6000F021F802460B4B5B6897
:104760001B0903F00F030A49CB5C22FA03F3094A41
:104770001360094B1B681846FCF7F8FF0023184626
:104780001037BD4680BD00BF00200240001002402F
:104790002C5F0108240100202801002080B487B08C
:1047A00000AF0023FB600023BB6000237B6100237C
:1047B0007B6000233B611E4B5B68FB60FB6803F082
:1047C0000C03042B02D0082B03D027E0194B3B61CC
:1047D00027E0FB689B0C03F00F03174AD35C7B6058
:1047E000FB6803F48033002B10D0114B5B685B0C2B
:1047F00003F00103114AD35CBB607B680D4A03FBE5
:1048000002F2BB68B2FBF3F37B6104E07B680C4A05
:1048100002FB03F37B617B693B6102E0054B3B617B
:1048200000BF3B6918461C37BD4680BC704700BFBF
:104830000010024000127A00DC600108EC60010800
:1048400000093D0080B400AF024B1B681846BD460E
:1048500080BC70472401002080B500AFFFF7F2FF55
:104860000246054B5B681B0A03F007030349CB5C58
:1048700022FA03F3184680BD001002403C5F010895
:1048800080B483B000AF786039607B680F221A6013
:10489000114B5B6803F003027B685A600E4B5B6848
:1048A00003F0F0027B689A600B4B5B6803F4E062F4
:1048B0007B68DA60084B5B68DB0803F4E0627B68C6
:1048C0001A61064B1B6803F007023B681A6000BFC1
:1048D0000C37BD4680BC70470010024000200240EB
:1048E00080B485B000AF78600A4B1B680A4AA2FB0F
:1048F00003235B0A7A6802FB03F3FB6000BFFB68DB
:104900005A1EFA60002BF9D100BF00BF1437BD4614
:1049100080BC704724010020D34D621080B586B062
:1049200000AF786000233B610023FB607B681B685D
:1049300003F00103002B7DD00023FB754F4BDB6997
:1049400003F08053002B0DD14C4BDB694B4A43F0F5
:104950008053D361494BDB6903F08053BB60BB6874
:104960000123FB75464B1B6803F48073002B18D1A1
:10497000434B1B68424A43F480731360FDF74AFBC4
:10498000386108E0FDF746FB02463B69D31A642B09
:1049900001D903236DE03A4B1B6803F48073002BAD
:1049A000F0D0364B1B6A03F44073FB60FB68002BAE
:1049B0002ED07B685B6803F44073FA689A4227D074
:1049C0002E4B1B6A23F44073FB602E4B01221A60AE
:1049D0002C4B00221A60294AFB681362FB6803F023
:1049E0000103002B14D0FDF715FB38610AE0FDF739
:1049F00011FB02463B69D31A41F28832934201D936
:104A0000032336E01D4B1B6A03F00203002BEED09C
:104A10001A4B1B6A23F440727B685B681749134387
:104A20000B62FB7D012B05D1144BDB69134A23F08C
:104A30008053D3617B681B6803F00203002B08D00E
:104A40000E4B5B6823F440427B689B680B49134321
:104A50004B607B681B6803F01003002B08D0074BEA
:104A60005B6823F480027B68DB68044913434B6076
:104A7000002318461837BD4680BD00BF0010024015
:104A8000007000404004424280B582B000AF7860C0
:104A90007B68002B01D1012341E07B6893F83D3016
:104AA000DBB2002B06D17B68002283F83C207868BB
:104AB00000F039F87B68022283F83D207B681A6891
:104AC0007B6804331946104600F0B4F97B68012274
:104AD00083F846207B68012283F83E207B68012210
:104AE00083F83F207B68012283F840207B68012205
:104AF00083F841207B68012283F842207B680122F1
:104B000083F843207B68012283F844207B680122DC
:104B100083F845207B68012283F83D200023184656
:104B20000837BD4680BD80B483B000AF786000BF59
:104B30000C37BD4680BC704780B485B000AF78604C
:104B40007B6893F83D30DBB2012B01D001233AE0C2
:104B50007B68022283F83D207B681B68DA687B68EB
:104B60001B6842F00102DA607B681B68184A9342B6
:104B70000ED07B681B68B3F1804F09D07B681B683F
:104B8000144A934204D07B681B68134A934211D1A4
:104B90007B681B689B6803F00703FB60FB68062BC0
:104BA00010D07B681B681A687B681B6842F00102A2
:104BB0001A6007E07B681B681A687B681B6842F014
:104BC00001021A60002318461437BD4680BC7047A6
:104BD000002C0140000400400008004080B582B075
:104BE00000AF78607B681B681B6903F00203022B2F
:104BF00022D17B681B68DB6803F00203022B1BD108
:104C00007B681B686FF002021A617B6801221A77C9
:104C10007B681B689B6903F00303002B03D0786853
:104C200000F0EDF805E0786800F0E0F8786800F052
:104C3000EFF87B6800221A777B681B681B6903F01A
:104C40000403042B22D17B681B68DB6803F0040398
:104C5000042B1BD17B681B686FF004021A617B6810
:104C600002221A777B681B689B6903F44073002B50
:104C700003D0786800F0C3F805E0786800F0B6F873
:104C8000786800F0C5F87B6800221A777B681B689B
:104C90001B6903F00803082B22D17B681B68DB68C3
:104CA00003F00803082B1BD17B681B686FF0080218
:104CB0001A617B6804221A777B681B68DB6903F042
:104CC0000303002B03D0786800F099F805E07868BA
:104CD00000F08CF8786800F09BF87B6800221A7767
:104CE0007B681B681B6903F01003102B22D17B68C3
:104CF0001B68DB6803F01003102B1BD17B681B685B
:104D00006FF010021A617B6808221A777B681B68B3
:104D1000DB6903F44073002B03D0786800F06FF870
:104D200005E0786800F062F8786800F071F87B6858
:104D300000221A777B681B681B6903F00103012BB3
:104D40000ED17B681B68DB6803F00103012B07D1E0
:104D50007B681B686FF001021A617868FCF718FB2A
:104D60007B681B681B6903F08003802B0ED17B6876
:104D70001B68DB6803F08003802B07D17B681B680E
:104D80006FF080021A61786800F0BFF87B681B68DA
:104D90001B6903F04003402B0ED17B681B68DB6866
:104DA00003F04003402B07D17B681B686FF0400283
:104DB0001A61786800F035F87B681B681B6903F09E
:104DC0002003202B0ED17B681B68DB6803F02003D7
:104DD000202B07D17B681B686FF020021A6178686E
:104DE00000F08AF800BF0837BD4680BD80B483B0AC
:104DF00000AF786000BF0C37BD4680BC704780B400
:104E000083B000AF786000BF0C37BD4680BC7047F0
:104E100080B483B000AF786000BF0C37BD4680BC63
:104E2000704780B483B000AF786000BF0C37BD46D8
:104E300080BC704780B485B000AF786039607B6813
:104E40001B68FB607B68294A93420BD07B68B3F1F7
:104E5000804F07D07B68264A934203D07B68254A5F
:104E6000934208D1FB6823F07003FB603B685B68EA
:104E7000FA681343FB607B681C4A93420BD07B6843
:104E8000B3F1804F07D07B68194A934203D07B6807
:104E9000184A934208D1FB6823F44073FB603B68D7
:104EA000DB68FA681343FB60FB6823F080023B6811
:104EB0005B691343FB607B68FA681A603B689A6819
:104EC0007B68DA623B681A687B689A627B68074A8B
:104ED000934203D13B681A697B681A637B6801229D
:104EE0005A6100BF1437BD4680BC7047002C01409A
:104EF000000400400008004080B483B000AF786038
:104F000000BF0C37BD4680BC704780B483B000AF93
:104F1000786000BF0C37BD4680BC704784B080B459
:104F200083B000AF786007F1140080E80E00002322
:104F300018460C37BD4680BC04B0704780B485B0BD
:104F400000AF78607B680022A3F844204FF43F4311
:104F5000FB60FB689AB27B68A3F8402000231846E8
:104F60001437BD4680BC704780B485B000AF786010
:104F70004FF43F43FB607B68B3F840309AB2FB6864
:104F80009BB2DB439BB213409AB27B68A3F84020EC
:104F9000002318461437BD4680BC704780B483B0E8
:104FA00000AF78600B46FB70002318460C37BD46F7
:104FB00080BC704784B080B483B000AF786007F1E4
:104FC000140080E80E007B680122A3F840207B6873
:104FD0000022A3F840207B680022A3F844207B68CD
:104FE0000022A3F85020002318460C37BD4680BC91
:104FF00004B0704780B49DB000AF78603960002382
:1050000087F86F307A683B681B789B0013441B88D5
:105010009BB223F4EC4323F07003A7F86C303B6899
:10502000DB78032B1FD801A252F823F03D50000873
:10503000595000086F5000084B500008B7F86C300A
:1050400043F40073A7F86C3012E0B7F86C3043F407
:10505000C063A7F86C300BE0B7F86C3043F48063A2
:10506000A7F86C3004E0012387F86F3000E000BF40
:105070007A683B681B789B001A44B7F86C3043F0A1
:105080007F4343F47F0343F4004343F080039BB228
:1050900013807A683B681B789B0013441B889BB283
:1050A00023F4E04323F070039BB23A681278134371
:1050B000A7F866307A683B681B789B001A44B7F8FB
:1050C000663043F07F4343F47F0343F4004343F0EF
:1050D00080039BB213803B681B7B002B40F07881E0
:1050E0003B685B78002B00F084807B68BB617B6849
:1050F000B3F850309BB21A46BB691344BB613B689E
:105100001B781A01BB69134403F580637B613B681C
:10511000DB885B089BB25B009AB27B691A807A6875
:105120003B681B789B0013441B887B827B8A03F0BF
:105130004003002B1BD07A683B681B789B0013440C
:105140001B889BB223F4E04323F070033B827A6810
:105150003B681B789B001A443B8A43F07F4343F42F
:105160007F0343F4004343F0C0039BB213803B68CA
:10517000DB78012B20D07A683B681B789B001344B6
:105180001B889BB223F4E04323F04003BB81BB891F
:1051900083F02003BB817A683B681B789B001A442C
:1051A000BB8943F07F4343F47F0343F4004343F060
:1051B00080039BB21380D5E27A683B681B789B0022
:1051C00013441B889BB223F4E04323F04003FB818C
:1051D0007A683B681B789B001A44FB8943F07F4345
:1051E00043F47F0343F4004343F080039BB21380F6
:1051F000B8E27B683B637B68B3F850309BB21A46D9
:105200003B6B13443B633B681B781A013B6B1344B5
:1052100003F58163FB623B68DB885B089BB25B0044
:105220009AB2FB6A1A807B68BB627B68B3F8503025
:105230009BB21A46BB6A1344BB623B681B781A01D7
:10524000BB6A134403F20C437B627B6A1B889BB2EC
:10525000C3F309039AB27B6A1A803B681B693E2B31
:105260001DD93B681B695B09BB663B681B6903F082
:105270001F03002B02D1BB6E013BBB667B6A1B8800
:105280009AB2BB6E9BB29B029BB213439BB26FEA76
:1052900043436FEA53439AB27B6A1A8026E03B6825
:1052A0001B69002B0AD17B6A1B889BB26FEA4343C0
:1052B0006FEA53439AB27B6A1A8017E03B681B6916
:1052C0005B08BB663B681B6903F00103002B02D03F
:1052D000BB6E0133BB667B6A1B889AB2BB6E9BB206
:1052E0009B029BB213439AB27B6A1A807A683B682E
:1052F0001B789B0013441B887B847B8C03F48043C6
:10530000002B1BD07A683B681B789B0013441B88DA
:105310009BB223F4E04323F070033B847A683B683C
:105320001B789B001A443B8C43F07F4343F47F037C
:1053300043F4404343F080039BB213803B681B78E7
:10534000002B24D17A683B681B789B0013441B8890
:105350009BB223F4804323F07003BB83BB8B83F4A5
:105360008053BB83BB8B83F40053BB837A683B6859
:105370001B789B001A44BB8B43F07F4343F47F03AD
:1053800043F4004343F080039BB21380EAE17A6860
:105390003B681B789B0013441B889BB223F480431B
:1053A00023F07003FB83FB8B83F40053FB837A6849
:1053B0003B681B789B001A44FB8B43F07F4343F40C
:1053C0007F0343F4004343F080039BB21380C9E1A1
:1053D0003B68DB78022B1ED17A683B681B789B0008
:1053E00013441B889BB223F4E04323F07003A7F817
:1053F00062307A683B681B789B001A44B7F86230C9
:1054000043F07F4343F47F0343F4014343F08003BD
:105410009BB213801DE07A683B681B789B001344A5
:105420001B889BB223F4E24323F07003A7F8643097
:105430007A683B681B789B001A44B7F8643043F0E5
:105440007F4343F47F0343F4004343F080039BB264
:1054500013807B68FB657B68B3F850309BB21A46BB
:10546000FB6D1344FB653B681B781A01FB6D13440D
:1054700003F58063BB653B681B895B089BB25B00DF
:105480009AB2BB6D1A807B687B657B68B3F850303D
:105490009BB21A467B6D13447B653B681B781A01EF
:1054A0007B6D134403F581633B653B685B895B0857
:1054B0009BB25B009AB23B6D1A803B685B78002B15
:1054C00040F093807A683B681B789B0013441B88EC
:1054D000A7F84030B7F8403003F48043002B1BD0CE
:1054E0007A683B681B789B0013441B889BB223F4AB
:1054F000E04323F07003FB877A683B681B789B00CE
:105500001A44FB8F43F07F4343F47F0343F440434B
:1055100043F080039BB213807A683B681B789B0042
:1055200013441B88BB87BB8F03F04003002B1BD0A9
:105530007A683B681B789B0013441B889BB223F45A
:10554000E04323F070037B877A683B681B789B00FD
:105550001A447B8F43F07F4343F47F0343F40043BB
:1055600043F0C0039BB213807A683B681B789B00B2
:1055700013441B889BB223F4804323F070033B87C2
:105580003B8F83F480533B873B8F83F400533B87EF
:105590007A683B681B789B001A443B8F43F07F433B
:1055A00043F47F0343F4004343F080039BB2138032
:1055B0007A683B681B789B0013441B889BB223F4DA
:1055C000E04323F04003FB867A683B681B789B002E
:1055D0001A44FB8E43F07F4343F47F0343F40043BC
:1055E00043F080039BB21380BCE07A683B681B7871
:1055F0009B0013441B88A7F84E30B7F84E3003F4D5
:105600008043002B1DD07A683B681B789B001344B5
:105610001B889BB223F4E04323F07003A7F84C30BF
:105620007A683B681B789B001A44B7F84C3043F00B
:105630007F4343F47F0343F4404343F080039BB232
:1056400013807A683B681B789B0013441B88A7F87B
:105650004A30B7F84A3003F04003002B1DD07A6877
:105660003B681B789B0013441B889BB223F4E043E8
:1056700023F07003A7F848307A683B681B789B00DA
:105680001A44B7F8483043F07F4343F47F0343F4B0
:10569000004343F0C0039BB213803B68DB78012BCF
:1056A00024D07A683B681B789B0013441B889BB20C
:1056B00023F4E04323F04003A7F84430B7F8443024
:1056C00083F02003A7F844307A683B681B789B007E
:1056D0001A44B7F8443043F07F4343F47F0343F464
:1056E000004343F080039BB213801DE07A683B685F
:1056F0001B789B0013441B889BB223F4E04323F0E8
:105700004003A7F846307A683B681B789B001A4430
:10571000B7F8463043F07F4343F47F0343F400433C
:1057200043F080039BB213807A683B681B789B0030
:1057300013441B889BB223F4804323F07003A7F823
:1057400042307A683B681B789B001A44B7F84230B5
:1057500043F07F4343F47F0343F4004343F080036B
:105760009BB2138097F86F3018467437BD4680BCE3
:10577000704700BF80B48DB000AF786039603B687F
:105780001B7B002B40F08E803B685B78002B44D065
:105790007A683B681B789B0013441B88BB81BB89DC
:1057A00003F04003002B1BD07A683B681B789B00FA
:1057B00013441B889BB223F4E04323F070037B81E6
:1057C0007A683B681B789B001A447B8943F07F43CF
:1057D00043F47F0343F4004343F0C0039BB21380C0
:1057E0007A683B681B789B0013441B889BB223F4A8
:1057F000E04323F040033B817A683B681B789B00C1
:105800001A443B8943F07F4343F47F0343F400434E
:1058100043F080039BB2138092E17A683B681B7867
:105820009B0013441B887B827B8A03F48043002BFC
:105830001BD07A683B681B789B0013441B889BB283
:1058400023F4E04323F070033B827A683B681B78C3
:105850009B001A443B8A43F07F4343F47F0343F4A5
:10586000404343F080039BB213807A683B681B7807
:105870009B0013441B889BB223F4804323F07003E6
:10588000FB817A683B681B789B001A44FB8943F0D4
:105890007F4343F47F0343F4004343F080039BB210
:1058A00013804DE13B685B78002B40F0A5807A685F
:1058B0003B681B789B0013441B883B843B8C03F4A0
:1058C0008043002B1BD07A683B681B789B001344F5
:1058D0001B889BB223F4E04323F07003FB837A68B8
:1058E0003B681B789B001A44FB8B43F07F4343F4D7
:1058F0007F0343F4404343F080039BB213807A68F4
:105900003B681B789B0013441B88BB83BB8B03F055
:105910004003002B1BD07A683B681B789B00134424
:105920001B889BB223F4E04323F070037B837A68E7
:105930003B681B789B001A447B8B43F07F4343F406
:105940007F0343F4004343F0C0039BB213807A68A3
:105950003B681B789B0013441B889BB223F4E043F5
:1059600023F070033B837A683B681B789B001A44E2
:105970003B8B43F07F4343F47F0343F4004343F006
:10598000C0039BB213807A683B681B789B0013446A
:105990001B889BB223F4804323F07003FB827A6858
:1059A0003B681B789B001A44FB8A43F07F4343F417
:1059B0007F0343F4004343F080039BB213807A6873
:1059C0003B681B789B0013441B889BB223F4E04385
:1059D00023F04003BB827A683B681B789B001A4423
:1059E000BB8A43F07F4343F47F0343F4004343F017
:1059F00080039BB21380A3E07A683B681B789B000E
:105A000013441B88FB85FB8D03F48043002B1BD0C4
:105A10007A683B681B789B0013441B889BB223F475
:105A2000E04323F07003BB857A683B681B789B00DA
:105A30001A44BB8D43F07F4343F47F0343F4404358
:105A400043F080039BB213807A683B681B789B000D
:105A500013441B887B857B8D03F04003002B1BD0F8
:105A60007A683B681B789B0013441B889BB223F425
:105A7000E04323F070033B857A683B681B789B000A
:105A80001A443B8D43F07F4343F47F0343F40043C8
:105A900043F0C0039BB213807A683B681B789B007D
:105AA00013441B889BB223F4E04323F07003FB8470
:105AB0007A683B681B789B001A44FB8C43F07F4359
:105AC00043F47F0343F4404343F080039BB21380CD
:105AD0007A683B681B789B0013441B889BB223F4B5
