:020000040800F2
:10000000005000201D0D0008850C0008870C00081A
:10001000890C00088B0C00088D0C00080000000003
:10002000000000000000000000000000F13B00089C
:100030008F0C000800000000513C0008953C0008AF
:10004000650D0008650D0008650D0008650D0008C8
:10005000650D0008650D0008650D0008650D0008B8
:10006000650D0008650D0008650D0008650D0008A8
:10007000650D0008650D0008650D0008650D000898
:10008000650D0008650D0008650D0008650D000888
:10009000910C0008650D0008650D0008650D00084D
:1000A000650D0008650D0008650D0008650D000868
:1000B000AD0A0008650D0008A10C0008650D0008D8
:1000C000650D0008650D0008650D0008650D000848
:1000D000650D0008650D0008650D0008650D000838
:1000E000650D0008650D0008650D000800000000A2
:1000F0000000000000000000000000000000000000
:0C01000000000000000000005FF808F1A3
:1001100000F1340191E838009C46A6464CF8045D95
:1001200090E8FF0FE54600BD90EC210B704700BF43
:1001300080EC210B704700BF90EC200B704700BF94
:1001400080EC200B704700BFD0EC200B704700BF45
:10015000C0EC200B704700BFF0EC0201F0EC021184
:10016000F0EC0221F0EC0231F0EC0241F0EC025133
:10017000F0EC0261F0EC0271F0EC0281F0EC029123
:10018000F0EC02A1F0EC02B1F0EC02C1F0EC02D113
:10019000F0EC02E1F0EC02F1704700BFE0EC02018C
:1001A000E0EC0211E0EC0221E0EC0231E0EC024173
:1001B000E0EC0251E0EC0261E0EC0271E0EC028163
:1001C000E0EC0291E0EC02A1E0EC02B1E0EC02C153
:1001D000E0EC02D1E0EC02E1E0EC02F1704700BF9C
:1001E000B0FC0181B0FC0191B0FC01A1B0FC01B1F7
:1001F000704700BFA0FC0181A0FC0191A0FC01A1FF
:10020000A0FC01B1704700BFEC4600B52DE90050DD
:100210002DE9FF1F4FF000032DE90C0001A907F0A5
:1002200009F8DDF840E012B0704700BFEC4600B5B9
:100230002DE900502DE9FF1F4FF000032DE90C00C0
:1002400001A907F037F8DDF840E012B0704700BFB1
:10025000EC4600B52DE900502DE9FF1F4FF00003DB
:100260002DE90C0001A907F047F8DDF840E012B0D5
:10027000704700BFEC4600B52DE900502DE9FF1F87
:100280004FF000032DE90C0001AB07F007F8DDF893
:1002900040E012B0704700BFEC4600B52DE90050B9
:1002A0002DE9FF1F4FF000032DE90C0001AA07F014
:1002B0007DF8DDF840E012B0704700BF80EA010C25
:1002C0001CF0030F37D110F0030C20F0030021F0D5
:1002D000030150F8042B08BF51F8043B0ED08CF0FA
:1002E000030C6FF07F434FEACC0C23FA0CFC51F85F
:1002F000043B42EA0C0243EA0C0300BFA2F1013CBA
:100300009A4201BF2CEA020C1CF0803F50F8042BEB
:1003100051F8043BF2D04FEA02604FEA1222012862
:1003200028BFB0EB036F08BF1B0AF4D003F0FF0334
:10033000000EC01A704710F0030F0AD010F8012BFE
:1003400011F8013B012A28BF9A42F4D0A2EB030026
:1003500070474DF8045D50F8042B01F0030521F0BF
:10036000030151F8043B022D26D04DD822F07F45E1
:10037000B5EB132FA2F1013C2CEA020C0DD11CF0BD
:10038000803C08BF51F8043B0AD185EA0205B5EB71
:10039000036F0CD150F8042BE8E74FEA13235BE01E
:1003A0003CF07F4C54D10B784FEA126554E04FEA91
:1003B000126503F0FF034FE04FEA0245A2F1013C52
:1003C0004FEA15452CEA020CB5EB134F18D11CF07F
:1003D000803C08BF51F8043B07D185EA0205B5EB24
:1003E000034F09D150F8042BE6E75FEA0C4C2FD1FC
:1003F0000B884FEA12452FE04FEA03434FEA1245BC
:100400004FEA134328E000BF02F0FF05B5EB136F7E
:10041000A2F1013C2CEA020C0DD11CF0803C08BF7B
:1004200051F8043B0AD185EA0205B5EB032F0AD146
:1004300050F8042BE8E74FEA13630DE012F0FF0FCA
:1004400006D051F8043B4FEA122523F07F4303E026
:100450004FF0000020BC704705F0FF0203F0FF00E2
:10046000012828BF904204BF2D0A1B0AF4D0A2EB3A
:10047000000020BC704700BF844641EA000313F02F
:10048000030349D1403A23D30B6803604B684360B0
:100490008B688360CB68C3600B6903614B69436100
:1004A0008B698361CB69C3610B6A03624B6A4362E8
:1004B0008B6A8362CB6AC3620B6B03634B6B4363D0
:1004C0008B6B8363CB6BC36340304031403ADBD2EC
:1004D00030320BD30B6803604B6843608B688360DA
:1004E000CB68C36010301031103AF3D20C3205D310
:1004F00051F8043B40F8043B043AF9D2043208D0E6
:10050000D2071CBF11F8013B00F8013B01D30B8857
:1005100003806046704700BF082A13D38B07B1D011
:1005200010F00303AED0C3F10403D21ADB071CBFE3
:1005300011F8013B00F8013BA4D331F8023B20F84D
:10054000023B9FE7043AD9D3013A11F8013B00F886
:10055000013BF9D20B7803704B7843708B78837032
:10056000604670470348044B834202D0034B03B1FB
:1005700018477047DC070020DC070020000000005F
:100580000548064B1B1AD90F01EBA301491002D0F5
:10059000034B03B118477047DC070020DC0700203D
:1005A0000000000010B5064C237843B9FFF7DAFFCE
:1005B000044B13B10448AFF300800123237010BD36
:1005C000DC070020000000008482000808B5054B0D
:1005D0001BB105490548AFF30080BDE80840FFF7AF
:1005E000CFBF00BF00000000E007002084820008A9
:1005F00070B504460D461646002100F0D3FCA671E6
:10060000A560204670BD83681B788079984214BF2E
:1006100000200120704708B50021C17001714171AF
:1006200000F0C2FC08BD38B505460C46FFF7EBFFED
:1006300010B10CB10123EB7038BD0171704738B5B2
:1006400004460D46FFF7DFFF10B1637903B905B922
:1006500038BD01216171204600F0A6FCA379A26893
:1006600001331370F4E7C078704700797047407920
:10067000704770B50446FFF7F6FF054658B12046AF
:10068000FFF7F3FF064628B92046FFF7F0FF10B149
:10069000354600E00025284670BD38B5044600F117
:1006A00010052846FFF7E1FF00B138BD2846FFF7E7
:1006B000E0FF0146204605F089FD204605F099FD42
:1006C000204605F08FFD01462846FFF7B8FFECE70E
:1006D000A0F11C00FFF7E1BF08B500F080FC08BDE9
:1006E00070B504460D461646194605F04FFD3246D4
:1006F000294604F11000FFF77BFF044BE361044B34
:1007000023601033E361204670BD00BF30830008D2
:100710003C83000882B00A4B9A6942F020029A6139
:100720009A6902F020020092009A9A6942F004024B
:100730009A619B6903F004030193019B02B0704727
:1007400000100240F8B59A4C4FF4FA73002221468B
:10075000984800F0A9FC4FF4FA730122214696480C
:1007600000F0A2FC4FF4FA7302222146934800F0F5
:100770009BFC4FF4FA7303222146914800F094FC4D
:100780004FF4FA73042221468E4800F08DFC4FF49A
:10079000FA73052221468C4800F086FC41F288332A
:1007A00006222146894800F07FFC41F28833072267
:1007B0002146874800F078FC41F288330822214620
:1007C000844800F071FC09222146834800F00AFBAE
:1007D0000A222146814800F005FB0F22214680486D
:1007E00000F000FB04F580644FF4FA630022214618
:1007F0007C4800F055FB012221467B4800F0F2FACC
:1008000003222146794800F0EDFA04222146784877
:1008100000F0E8FA4FF4FA6305222146754800F02B
:100820003FFB06222146744800F0DCFA07222146ED
:10083000724800F0D7FA08222146714800F0D2FA37
:100840004FF4FA63092221466E4800F029FB0A2280
:1008500021466D4800F0C6FA41F288330B2221464A
:100860006A4800F0F9FA0C222146694800F0BAFA09
:100870000D222146674800F0B5FA0E22214666484F
:1008800000F0B0FA0F222146644800F0ABFA0D22C6
:100890006349644800F0A6FA634C0022214663488D
:1008A000FFF7A6FE624F3B46012221466148FFF753
:1008B00017FF47F23053022221465F48FFF710FF2F
:1008C000032221465D48FFF793FE5D4E3346042226
:1008D00021465C48FFF704FF5B4D29465B4805F065
:1008E0001FFD052221465A48FFF782FE594C00227F
:1008F00021465948FFF77CFE3B46012221465748D6
:10090000FFF7EEFE47F23053022221465448FFF72C
:10091000E7FE032221465348FFF76AFE33460422CE
:1009200021465148FFF7DCFE2946504805F0F8FC07
:10093000052221464E48FFF75BFE4E4C0022214621
:100940004D48FFF755FE3B46012221464B48FFF735
:10095000C7FE47F23053022221464948FFF7C0FE46
:10096000032221464748FFF743FE3346042221462F
:100970004548FFF7B5FE2946444805F0D1FC05225D
:1009800021464348FFF734FE424C002221464248AC
:10099000FFF72EFE43F69823012221463F48FFF73A
:1009A0009FFE022221463E48FFF722FEF8BD00BF0F
:1009B00000080140940C0020740C0020540C00200E
:1009C000340C0020140C0020F40B0020D40B002069
:1009D000B40B0020940B0020840B0020740B00202B
:1009E000640B0020400B0020300B0020200B002067
:1009F000100B0020EC0A0020DC0A0020CC0A0020AA
:100A0000BC0A0020980A0020880A0020640A0020FE
:100A1000540A0020440A0020340A0020240A00203E
:100A200000100140140A0020100A0020040A0020CF
:100A3000C0D40100E4090020C4090020B809002046
:100A4000007099149809002080EE36008409002077
:100A50007809002074090020680900204809002056
:100A6000280900201C090020FC080020E8080020BC
:100A7000DC080020D8080020CC080020AC080020AA
:100A80008C08002080080020600800204C0800200E
:100A9000400800203C0800203008002010080020FA
:100AA0000408002070477047FEE7000010B54FF0C3
:100AB0008042136923F001031361002406E0064B12
:100AC00053F8240003681B6898470134034B1B78D4
:100AD000A342F4DC10BD00BF040000200000002091
:100AE00008B50268034B9A4200D008BD00F00AFB2B
:100AF000FBE700BF0008004072B6FEE700B595B006
:100B0000282200210DEB020007F01CF900230593B9
:100B10000693079308930993019302930393049315
:100B200001220A924FF480330B930E92022211920B
:100B300012934FF4E01313930AA801F087FBC0B996
:100B40000F23059302210691002307934FF480623F
:100B50000892099305A801F0ABFD60B91023019339
:100B60000023049301A801F08DFE30B915B05DF8A3
:100B700004FBFFF7C1FFFFF7BFFFFFF7BDFF08B59D
:100B800000F0AEFAFFF7BAFFFFF7C4FD05F0EAFB8D
:100B900004F0B0F9FEE708B5FFF7D4FD08BD00008A
:100BA00082B00E4B9A6942F001029A619A6902F092
:100BB00001020092009ADA6942F08052DA61DB6940
:100BC00003F080530193019B054A536823F0E063CF
:100BD00043F00073536002B0704700BF0010024042
:100BE0000000014030B589B00446214BDA6942F07B
:100BF0000402DA61DB6903F004030193019B02A99B
:100C000003A801F021FE069BCBB901F00DFE0346BF
:100C1000184AA2FB03239B0C013B1748174A0260AA
:100C200040F2E732C2604360002303618360836166
:100C300001F0E6FF054630B1284609B030BD01F0AD
:100C4000F3FD4300E4E70C4801F0AAFE0546002846
:100C5000F2D11E2000F0BEFA0F2C01D90125EBE7DE
:100C6000002221461E2000F0A5FA054B1C60E3E798
:100C70000010024083DE1B43B40C0020000800403B
:100C800028010020FEE7FEE7FEE7FEE7FEE77047EB
:100C900008B5024801F0A0F808BD00BF483F002099
:100CA00008B5024801F0B4FE08BD00BFB40C002036
:100CB0000120704708B507F0E9F8162303604FF0EC
:100CC000FF3008BD08B54FF0FF31FFF7F3FFFEE737
:100CD00010B503460C4A0D490D48006840B10C4858
:100CE00000680344521A934206D8094A136010BDA3
:100CF0000748084C0460F2E707F0C8F80C230360CB
:100D00004FF0FF30F3E700BF005000200004000068
:100D1000FC0C00204045002070470000FFF7FCFF5E
:100D20000B480C490C4A002302E0D458C450043349
:100D3000C4188C42F9D3094A094C002301E013601E
:100D40000432A242FBD307F0A7F8FFF718FF704761
:100D500000000020DC070020D48B0008DC07002006
:100D60003C450020FEE70079704701717047C36879
:100D7000DA68017A01238B401A4214BF0120002057
:100D8000704738B504460D46FFF7EFFF3DB9E168FF
:100D90004B69207A0122824013434B6138BDE168E0
:100DA0000B69207A0122824013430B61F6E710B5EC
:100DB000044603685B689847204610BD70B504463A
:100DC0000E461546084604F03DFF002808DB236860
:100DD00023EA06032360236805FA00F21343236025
:100DE00070BD000070B504460E461546083000F090
:100DF0009DF80E4B23600E4B23600E4B2360072D96
:100E000009D8AD00012241F21111A9403046FFF787
:100E1000D5FF204670BD083DAD00012241F2111101
:100E2000A940301DFFF7CAFFF3E700BFE0830008C9
:100E3000EC830008FC83000808B505F01EFA08BD25
:100E4000A0F11000FFF7F8BF08B505F04CFA08BD97
:100E5000A0F11000FFF7F8BF70B504460D46164626
:100E6000194605F0F3F93246294604F11000FFF760
:100E7000B9FF054B2362054B236003F11402226185
:100E800024332362204670BD30830008CC840008E0
:100E900010B5044603689B689847204610BD0000C3
:100EA00070B504460D461646194605F0FDF9324662
:100EB000294604F11000FFF795FF054B2362054B0F
:100EC000236003F11402226124332362204670BDA3
:100ED00030830008FC84000810B5044603689B6852
:100EE0009847204610BD10B5044605F0B9F92046D4
:100EF00005F0D1F9014604F11000FFF742FF10BDE3
:100F0000A0F12000FFF7EFBF10B5044605F0D6F9B9
:100F1000204605F0FAF9014604F11000FFF731FF11
:100F200010BDA0F12000FFF7EFBF0000027041608C
:100F3000164B99420CD0164B99420FD0154B994243
:100F400012D0154B994215D0144B994218D07047C6
:100F5000134A936943F0040393617047104A9369FD
:100F600043F00803936170470D4A936943F01003FF
:100F7000936170470A4A936943F020039361704775
:100F8000074A936943F040039361E0E7000801409A
:100F9000000C014000100140001401400018014005
:100FA0000010024081707047837843B1012B0ED04E
:100FB00003788B4201D001234370017070470029F0
:100FC000FBD00378002BF8D101234370F5E700290B
:100FD000F3D10378002BF0D001234370EDE70346F3
:100FE000407800225A70704783689A68017901231B
:100FF0008B401A420CBF01200020704710B50446F8
:101000001030FFF7F1FF0146204605F0DFF82046DB
:1010100005F0EFF810BDA0F11C00FFF7EFBF08B519
:1010200005F0E0F808BDA0F11000FFF7F8BF08B523
:1010300003681B68984780F00100C0B208BD0368D0
:1010400023EA010303600368134303607047000051
:1010500070B504460D4616460430FFF767FF104B87
:101060002360104B2360B300DBB2072E0DD808229B
:101070009A400F2199402846FFF7E1FFEB680122D3
:10108000B2401343EB60204670BD203BDBB2082228
:101090009A400F219940281DFFF7D1FFEEE700BFCE
:1010A000E08300089C85000870B504460D4616468E
:1010B000194605F06BF83246294604F11000FFF797
:1010C000C7FF054BE361054B236003F11402226166
:1010D0002033E361204670BD30830008A8850008F6
:1010E00008B5074A136843F010031360032000F0AB
:1010F0004FF80F20FFF776FDFFF752FD002008BDE7
:1011000000200240034A1168034B1B780B44136014
:10111000704700BF000D002024010020014B18681B
:10112000704700BF000D0020002808DB0901C9B28C
:1011300000F1604000F5614080F80013704700F056
:101140000F000901C9B2014B1954704714ED00E0BA
:1011500000B500F00700C0F1070CBCF1040F28BF78
:101160004FF0040C031D062B0FD9C31E4FF0FF3E9A
:101170000EFA0CF021EA000199400EFA03FE22EA71
:101180000E0241EA02005DF804FB0023EEE70000D6
:10119000074AD36823F4E0631B041B0C000200F42D
:1011A000E060034343F0BF6343F40033D360704710
:1011B00000ED00E010B50446054BD868C0F30220EE
:1011C000FFF7C6FF01462046FFF7AEFF10BD00BF88
:1011D00000ED00E0002807DB00F01F0240090123BA
:1011E0009340024A42F82030704700BF00E100E01F
:1011F00038B512F4804F44D00468B4F850309BB234
:1012000091F800C003EBCC03023304EB4304B4F8C1
:101210000044C4F309048B69A34228D31B1B8B61D0
:101220008B697BB9056835F82C309BB223F4804379
:1012300023F0700383F4005343F4004343F080032E
:1012400025F82C3012F0400F0ED002680D7832F8DD
:1012500025309BB223F4E04323F0700343F40043B2
:1012600043F0C00322F8253024B9204638BD0023BE
:101270008B61D5E723460A894969006802F06BFC57
:10128000F3E70468B4F850309BB291F800C003EB68
:10129000CC03063304EB4304B4F80044C4F309045C
:1012A0008B69A3422FD31B1B8B618B697BB90568AC
:1012B00035F82C309BB223F4804323F0700383F481
:1012C000005343F4004343F0800325F82C3012F020
:1012D000400F0FD1026891F800C032F82C309BB259
:1012E00023F4E04323F0700343F4004343F0C003CE
:1012F00022F82C30002CB8D023464A89496900686E
:1013000002F029FCB1E700238B61CEE770B586B00F
:10131000002800F08180044690F8A932EBB1032345
:1013200084F8A932206801F0A9FC254655F8106B15
:10133000EC460FCDACE80F002B68CCF80030231D35
:101340000ECB304601F08AFC054658B1022384F8E2
:10135000A9320125284606B070BD80F8A83205F0F4
:10136000F5F8DCE70021206801F092FC2B4616E03E
:101370005A1C02EB820104EBC1010120487002EB10
:10138000820104F8313004EBC1000021C17003EB8D
:10139000830004EBC0008163C1630164D3B2616860
:1013A0008B42E5D316E005EB850304EBC303002273
:1013B00083F8692183F8685183F86B21C3F8782199
:1013C000C3F87C2105EB850304EBC303C3F880213C
:1013D0000135EDB2A942E6D8254655F8106BEC462A
:1013E0000FCDACE80F002B68CCF80030231D0ECBDE
:1013F000304601F04FFC054620B1022384F8A932A3
:101400000125A7E7002384F82430012384F8A932BA
:10141000206801F09EFF9DE701259BE738B590F815
:10142000A832012B11D00446012580F8A85200688B
:1014300001F01BFC2946204605F09DF9206801F0CB
:1014400086FF002084F8A80238BD0220FCE770B5B2
:1014500005460C46164612F0400F00F00E81026859
:10146000B2F850309BB2097803EBC103023302EBB0
:101470004302B2F80024C2F30902A36993424ED991
:101480009B1AA361A369002B66D16378002B49D115
:101490002B68B3F8502092B2134403EB0113B3F856
:1014A0000424C2F30902A3F80424B3F804246FEA65
:1014B00042426FEA524292B2A3F804242B68627847
:1014C000002A3CD1B3F8502092B21344227803EBA7
:1014D0000213B3F80C24C2F30902A3F80C24B3F8E6
:1014E0000C246FEA42426FEA524292B2A3F80C24F3
:1014F0002178284605F05EF816F4804F41D02A681E
:10150000217832F821309BB223F4E04323F07003BA
:1015100043F4404343F0800322F8213031E00023BC
:10152000A361AFE7012BC9D12B68B3F8502092B269
:10153000134403EB01130022A3F80424BEE7012A9D
:10154000D6D1B3F8502092B21344227803EB0213A1
:101550000022A3F80C24CBE716F4804F0DD02868A6
:1015600030F821309BB223F4E04323F0700343F4BE
:10157000404343F0800320F8213094F82430012BBD
:1015800012D02A68217832F821309BB223F4E0434C
:1015900023F0400383F0300343F4004343F080031F
:1015A00022F82130002070BD636913446361E36950
:1015B0001344E361216A2369994224D3C91A216241
:1015C0006278002A44D12A68B2F8501089B20A44DD
:1015D000217802EB0112B2F80414C1F30901A2F858
:1015E00004143E2B1BD9580913F01F0F00D10138EA
:1015F000B2F8041489B2800280B2014341F4004180
:10160000A2F8041426E021B9002384F824301346FC
:10161000D6E7002384F8243023620B46D0E74BB989
:10162000B2F804146FEA41416FEA514189B2A2F85D
:1016300004140FE0590813F0010F00D00131B2F883
:10164000040480B2890289B20143A2F8041401E0C3
:10165000012A06D09BB222896169286801F081FEC7
:101660008FE72A68B2F8501089B20A44217802EB59
:10167000011299B2A2F80414ECE70268B2F85030F3
:101680009BB2097803EBC103063302EB4302B2F8C5
:101690000024C2F30902A36993424FD39B1AA361AA
:1016A000A369002B67D16378002B4AD12B68B3F86C
:1016B000502092B2134403EB0113B3F80424C2F395
:1016C0000902A3F80424B3F804246FEA42426FEA43
:1016D000524292B2A3F804242B686278002A3DD1CA
:1016E000B3F8502092B21344227803EB0213B3F8FC
:1016F0000C24C2F30902A3F80C24B3F80C246FEAFB
:1017000042426FEA524292B2A3F80C242178284652
:1017100004F050FF16F4804F7FF433AF2A6821782D
:1017200032F821309BB223F4E04323F0700343F4FA
:10173000404343F0800322F8213022E70023A361D5
:10174000AEE7012BC8D12B68B3F8502092B21344F6
:1017500003EB01130022A3F80424BDE7012AD5D12D
:10176000B3F8502092B21344227803EB0213002204
:10177000A3F80C24CAE716F4804F0DD1286830F87E
:1017800021309BB223F4E04323F0700343F4404341
:1017900043F0800320F8213094F82430012B7FF4AB
:1017A000F0AE636913446361E3691344E361216A42
:1017B0002369994224D3C91A21622A6861780029D1
:1017C00043D1B2F8501089B20A44217802EB0112D9
:1017D000B2F80C14C1F30901A2F80C143E2B1BD96A
:1017E000580913F01F0F00D10138B2F80C1489B258
:1017F000800280B2014341F40041A2F80C1426E0BB
:1018000021B9002384F824301346D6E7002323624D
:1018100084F824300B46D0E74BB9B2F80C146FEAC9
:1018200041416FEA514189B2A2F80C140FE0590806
:1018300013F0010F00D00131B2F80C0480B289021C
:1018400089B20143A2F80C1401E0012906D09BB231
:1018500062896169286801F084FD92E6B2F850104F
:1018600089B20A44217802EB011299B2A2F80C1451
:10187000EDE72DE9F04105462868B0F8443013F44F
:10188000004F00F09282B0F84440A3B214F00F046D
:1018900040F0E28013F0100F6BD003889AB213F47B
:1018A000006F40F09D8012F4004FE5D0038823F0D4
:1018B00070031B051B0D43F0800303802868B0F8FC
:1018C00050309BB295F8682103EBC203063300EB5E
:1018D0004303B3F80034C3F30903C5F884318BB173
:1018E000D5F87C1171B1B5F86E2102F034F9D5F854
:1018F0007C31D5F884211344C5F87C310021284679
:1019000004F04CFE2A68138899B213F4006FB3D127
:1019100001F44051B1F5405FAED0B2F850309BB207
:101920001A44B2F80C34C3F30903A2F80C34D5F806
:1019300078313E2B77D9590913F01F0F00D10139A7
:10194000B2F80C349BB2890289B20B4343F40043D2
:10195000A2F80C342A6813889BB223F4804323F046
:10196000700383F4405343F4004343F08003138037
:1019700082E703889BB223F4E14323F070036FEA0C
:1019800043436FEA53439BB203802A68B2F8503056
:101990009BB295F8281003EBC103023302EB43021C
:1019A000B2F80034C3F309036B64EA6B1A44EA63C8
:1019B0000021284604F0FEFD95F82430002B3FF46A
:1019C0005BAF2B6C002B7FF457AF95F824302A685F
:1019D00043F08003A2F84C30002385F824304BE715
:1019E000B0F850309BB295F8682103EBC203063380
:1019F00000EB4303B3F80034C3F30903C5F88431A3
:101A0000B5F86E2105F52C7102F0A5F82A68138847
:101A100023F070031B051B0D43F080031380284641
:101A200004F0B4FD28E74BB9B2F80C346FEA434335
:101A30006FEA53439BB2A2F80C348BE7590813F0BA
:101A4000010F00D00131B2F80C3498B28B029BB276
:101A50000343A2F80C347DE730F824309EB213F42F
:101A6000004F4CD116F0800F3FF406AF621C02EB22
:101A7000820105EBC101286830F824309BB223F4C1
:101A8000E14323F070036FEA43436FEA53439BB291
:101A900020F82430CB78012B00F0F28016F4807F00
:101AA00040F07E812868B0F850309BB2621C02EB97
:101AB000820215F8326003EBC603023300EB4303E6
:101AC000B3F80034C3F3090304EB840205EBC2024C
:101AD000126C9A4240F24C8104EB840705EBC70775
:101AE000D21A3A6404EB840205EBC202126C002A9B
:101AF00040F045813146284604F05CFDBCE630F8F4
:101B0000243023F070031B051B0D43F0800320F8E5
:101B1000243004EB8401C90001F5B47105EB010820
:101B200004EB840305EBC30393F87431002B42D11B
:101B30002868B0F850309BB204EB840205EBC20277
:101B400092F8682103EBC203063300EB4303B3F8BA
:101B50000074C7F3090717BB04EB840305EBC30349
:101B6000D3F884213A44C3F88421D3F87C213A4441
:101B7000C3F87C21D3F880313BB104EB840305EB3F
:101B8000C303D3F878319F4275D204EB840305EB8D
:101B9000C30393F86811284604F000FD62E704EBE4
:101BA000840105EBC1013B46B1F86E21D1F87C11EF
:101BB00001F0D1FFD0E704EB840305EBC30393F8F6
:101BC0006B31022B35D0296804EB840205EBC2028D
:101BD00092F8680131F820309BB223F4E04323F0FF
:101BE000700343F4004343F0C00321F82030286819
:101BF00092F8682130F8223013F4804F20D0B0F8EA
:101C000050309BB203EBC203023300EB4303B3F843
:101C10000074C7F30907002F9ED004EB840105EB85
:101C2000C1013B46B1F87021D1F87C1101F093FF5E
:101C300092E7324641462846FFF7DAFA07468BE735
:101C4000B0F850309BB203EBC203063300EB430302
:101C5000B3F80074C7F30907002F3FF47DAF04EB1E
:101C6000840105EBC1013B46B1F87221D1F87C112A
:101C700001F071FF70E74146286801F085FBF1E64D
:101C800004EB840305EBC30300221A6493F8343099
:101C9000FBB116F0400F37D04B781BBB2B68B3F865
:101CA000502092B21344621C02EB820215F83220DB
:101CB00003EB0213B3F80424C2F30902A3F80424CB
:101CC000B3F804246FEA42426FEA524292B2A3F898
:101CD0000424013404EB840415F83410284604F07D
:101CE00069FCC9E5012BF4D12B68B3F8502092B2FE
:101CF0001344621C02EB820215F8322003EB02133C
:101D00000022A3F80424E4E72A68631C03EB83039E
:101D100005EBC3035B78D3B9B2F850309BB21344E0
:101D2000621C02EB820215F8322003EB0213B3F8B7
:101D30000C24C2F30902A3F80C24B3F80C246FEAB4
:101D400042426FEA524292B2A3F80C24C1E7012B3F
:101D5000BFD1B2F850309BB21344621C02EB820236
:101D600015F8322003EB02130022A3F80C24B0E78D
:101D700004EB840205EBC20200271764B2E604EB11
:101D8000840205EBC202D66B1E44D663526C04EB90
:101D9000840405EBC4041344636401F0F5FA6BE5B5
:101DA00032462846FFF753FB66E50020BDE8F08188
:101DB00090F8A832012B0DD010B50446012380F80D
:101DC000A83280F82410006801F0BBFA002084F8E3
:101DD000A80210BD0220704710B584B00446006808
:101DE00001F0B9FA10F4004F20D110F4806F21D126
:101DF00010F4804F2FD110F4005F37D110F4805FC2
:101E00003ED110F4006F40F0878010F4007F40F066
:101E1000AE8010F4807F27D02268B2F844309BB2A5
:101E200023F480739BB2A2F844301DE02046FFF7F4
:101E300020FD19E02268B2F844309BB223F480639D
:101E40009BB2A2F84430204604F0C5FB0021204696
:101E5000FFF7AEFF08E02268B2F844309BB223F4EB
:101E600080439BB2A2F8443004B010BD2268B2F89F
:101E700044309BB223F400539BB2A2F84430F3E702
:101E80002268B2F840309BB223F004039BB2A2F860
:101E900040302268B2F840309BB223F008039BB276
:101EA000A2F84030204604F0B9FB2268B2F8443072
:101EB0009BB223F480539BB2A2F84430D4E722684B
:101EC00032F8231004AA02EB430222F8101C01335B
:101ED000DBB2072BF3D92268B2F840309BB243F053
:101EE0000103A2F840302268B2F840309BB223F0E0
:101EF00001039BB2A2F840302368B3F8442012F4E7
:101F0000806FF9D0B3F8442092B222F4806292B28A
:101F1000A3F8442000230BE00023DAE7226804A999
:101F200001EB430131F8101C22F823100133DBB21E
:101F3000072BF3D92268B2F840309BB243F0080374
:101F4000A2F840302268B2F844309BB223F4006318
:101F50009BB2A2F844302268B2F840309BB243F002
:101F60000403A2F84030204604F048FB7CE72268D6
:101F7000B2F844309BB223F400739BB2A2F8443011
:101F8000204604F022FB6FE710B50446084611F026
:101F9000800F25D101F0070C0CEB8C01C90001F575
:101FA000B47E04EB0E010CEB8C0C04EBCC0C4FF06C
:101FB000000E8CF869E100F0070008700A61CB7030
:101FC000022B1AD094F8A832012B19D0012384F8DF
:101FD000A832206800F06FFE002084F8A80210BD2F
:101FE00001F0070C0CF1010C0CEB8C0104EBC101AE
:101FF0004FF0010E81F801E0DDE700230B71E1E70E
:102000000220ECE710B504460B4611F0800F1FD1FB
:1020100001F0070202EB8201C90001F5B47101442D
:1020200002EB820200EBC202002082F8690103F099
:1020300007030B7094F8A832012B13D0012384F806
:10204000A832206801F01CF8002084F8A80210BD16
:1020500001F00702013202EB820100EBC101012015
:102060004870E4E70220F2E710B501F0070C0CEB32
:102070008C01C90001F5B4710CEB8C0E00EBCE0E97
:10208000CEF87C21CEF880310024CEF884418EF841
:1020900069418EF868C10144006801F075F9204675
:1020A00010BD01F0070101EB810100EBC100D0F888
:1020B0008401704738B501F0070404F1010C0CEB02
:1020C0008C0104EB840E00EBCE0ECEF83C20CEF853
:1020D000403001228EF84C20CEF848300025CEF852
:1020E000445000EBC1035A7000F8314019460068B3
:1020F00001F04AF9284638BD38B501F007054268B5
:10210000954231D804460B4611F0800F1ED101EBE9
:102110008101C90001F5B471014403EB830300EBB5
:10212000C303002283F8692101238B700D7094F89A
:10213000A832012B1AD0012384F8A832206801F0BC
:102140008AF85DB1002084F8A80238BD6B1C03EB4F
:10215000830100EBC10101224A70E5E704F52C710F
:10216000206801F0FCF8EDE70120EEE70220ECE743
:102170000B4601F00F014268914230D810B5044679
:1021800013F0800F21D103F0070202EB8201C90096
:1021900001F5B471014402EB820200EBC20200209F
:1021A00082F8690100228A7003F007030B7094F82B
:1021B000A832012B15D0012384F8A832206801F041
:1021C0006FF8002084F8A80210BD03F00702013266
:1021D00002EB820100EBC10101204870E2E701201F
:1021E00070470220F0E711F0800F0BD001F00701DB
:1021F000013101EB810100EBC10052B90273C380D0
:102200000020704701EB8101C90001F5B471084459
:10221000F3E70122027303811B0C4381F0E7000006
:1022200082B0084B1B68084AA2FB03235B0A00FB31
:1022300003F3019300BF019B5A1E0192002BF9D1B9
:1022400002B0704720010020D34D6210002800F03A
:10225000F18170B582B00446036813F0010F2CD0F1
:10226000994B5B6803F00C03042B1DD0964B5B6805
:1022700003F00C03082B12D06368B3F5803F41D004
:10228000002B55D103F1804303F504331A6822F47F
:1022900080321A601A6822F480221A6037E08A4B72
:1022A0005B6813F4803FE7D0874B1B6813F4003F53
:1022B00003D06368002B00F0BF81236813F0020F86
:1022C00075D0814B5B6813F00C0F5FD07E4B5B6861
:1022D00003F00C03082B54D02369002B00F08A80F4
:1022E0007A4B01221A60FEF719FF0546764B1B68F0
:1022F00013F0020F75D1FEF711FF401B0228F5D92C
:1023000003209EE1704A136843F4803313606368CE
:1023100043B3FEF703FF05466B4B1B6813F4003F06
:10232000CBD1FEF7FBFE401B6428F5D9032088E1E2
:10233000B3F5A02F09D0644B1A6822F480321A60DA
:102340001A6822F480221A60E1E703F18043A3F5C2
:102350003C331A6842F480221A601A6842F48032D0
:102360001A60D4E7FEF7DAFE0546574B1B6813F4F4
:10237000003FA2D0FEF7D2FE401B6428F5D903200F
:102380005FE1514B5B6813F4803FA5D14E4B1B6856
:1023900013F0020F03D02369012B40F04F814A4A0A
:1023A000136823F0F803616943EAC10313602368EB
:1023B00013F0080F33D0A369002B5CD0434B0122EC
:1023C000C3F88024FEF7AAFE05463F4B5B6A13F074
:1023D000020F21D1FEF7A2FE401B0228F5D90320EF
:1023E0002FE1394A136823F0F803616943EAC10316
:1023F0001360DCE7354B00221A60FEF78FFE0546BE
:10240000314B1B6813F0020FD1D0FEF787FE401B43
:102410000228F5D9032014E10120FFF701FF23680A
:1024200013F0040F00F09680274BDB6913F0805FF8
:1024300034D1254BDA6942F08052DA61DB6903F06E
:1024400080530193019B0125214B1B6813F4807F6E
:1024500026D0E368012B3DD0002B53D103F18043FC
:1024600003F504331A6A22F001021A621A6A22F092
:1024700004021A6233E0154B0022C3F88024FEF7F1
:102480004DFE0546104B5B6A13F0020FC7D0FEF7F6
:1024900045FE401B0228F5D90320D2E00025D3E7F2
:1024A0000B4A136843F480731360FEF737FE064649
:1024B000074B1B6813F4807FCBD1FEF72FFE801BE8
:1024C0006428F5D90320BCE000100240000042421D
:1024D000007000405F4A136A43F001031362E3682F
:1024E00033B3FEF71BFE06465A4B1B6A13F0020F6E
:1024F0002FD1FEF713FE801B41F288339842F3D9A7
:1025000003209EE0052B09D0524B1A6A22F00102EB
:102510001A621A6A22F004021A62E0E74D4B1A6A44
:1025200042F004021A621A6A42F001021A62D6E705
:10253000FEF7F4FD0646474B1B6A13F0020F08D066
:10254000FEF7ECFD801B41F288339842F3D903205B
:1025500077E0E5B9E369002B72D03E4A526802F099
:102560000C02082A56D0022B17D03B4B00221A66C9
:10257000FEF7D4FD0446374B1B6813F0007F47D0AD
:10258000FEF7CCFD001B0228F5D9032059E0314AA3
:10259000D36923F08053D361DCE72F4B00221A6606
:1025A000FEF7BCFD05462B4B1B6813F0007F06D0E1
:1025B000FEF7B4FD401B0228F5D9032041E0236A51
:1025C000B3F5803F1AD023494B6823F47413226A71
:1025D000606A024313434B601F4B01221A66FEF7E9
:1025E0009DFD04461B4B1B6813F0007F0ED1FEF7C8
:1025F00095FD001B0228F5D9032022E0154A5368F7
:1026000023F40033A1680B435360DCE7002018E09B
:10261000002016E0012B16D00E4B5B6803F48031CE
:10262000226A914211D103F47013626A93420ED16F
:10263000002006E001207047012002E0012000E0B8
:10264000002002B070BD0120FBE70120F9E7012066
:10265000F7E700BF00100240000042420F4B5B68EA
:1026600003F00C02082A01D00D487047C3F38342DF
:102670000C49885C13F4803F0BD0084B5B68C3F3B4
:102680004043094AD35C064A02FB00F0B0FBF3F07A
:102690007047064B03FB00F0704700BF001002407C
:1026A00000127A00D0850008CC85000800093D00A2
:1026B000002800F0A08070B50D460446524B1B6800
:1026C00003F007038B420BD24F4A136823F0070332
:1026D0000B431360136803F007038B4240F08D80B7
:1026E000236813F0020F17D013F0040F04D0474AE9
:1026F000536843F4E0635360236813F0080F04D079
:10270000424A536843F460535360404A536823F08D
:10271000F003A1680B435360236813F0010F31D01D
:102720006368012B20D0022B25D0384A126812F0A2
:10273000020F64D035494A6822F0030213434B600C
:10274000FEF7ECFC0646314B5B6803F00C03626855
:10275000B3EB820F16D0FEF7E1FC801B41F2883309
:102760009842F0D9032045E0284A126812F4003F4D
:10277000E0D101203EE0254A126812F0007FD9D155
:10278000012037E0204B1B6803F00703AB420AD956
:102790001D4A136823F007032B431360136803F0EB
:1027A0000703AB422DD1236813F0040F06D0174A5C
:1027B000536823F4E063E1680B435360236813F02C
:1027C000080F07D0114A536823F46053216943EA84
:1027D000C1035360FFF742FF0C4B5B68C3F3031365
:1027E0000B4AD35CD8400B4B18600B4B1868FEF7B4
:1027F000F9F9002070BD012070470120FAE701209F
:10280000F8E70120F6E700BF002002400010024078
:10281000588300082001002028010020014B18687F
:10282000704700BF2001002008B5FFF7F7FF044BF9
:102830005B68C3F30223034AD35CD84008BD00BFE2
:1028400000100240508300080F2303600B4B5A68AE
:1028500002F0030242605A6802F0F00282605A6895
:1028600002F4E062C2605B68DB0803F4E0630361CA
:10287000034B1B6803F007030B6070470010024016
:102880000020024070B582B00446036813F0010FC7
:1028900036D03F4BDB6913F0805F49D13C4BDA699E
:1028A00042F08052DA61DB6903F080530193019BAF
:1028B0000125384B1B6813F4807F3BD0344B1B6AD7
:1028C00013F4407313D0626802F440729A420ED03F
:1028D0002F4A136A23F440702F490126C1F840643F
:1028E0000026C1F84064106213F0010F36D1284A67
:1028F000136A23F4407361680B431362002D3ED1C9
:10290000236813F0020F06D0214A536823F4404392
:10291000A1680B435360236813F0100F34D01C4A96
:10292000536823F48003E1680B43536000202CE0DC
:102930000025BEE7174A136843F480731360FEF75F
:10294000EDFB0646134B1B6813F4807FB6D1FEF7F0
:10295000E5FB801B6428F5D9032016E0FEF7DEFBBB
:1029600006460B4B1B6A13F0020FC0D1FEF7D6FBD5
:10297000801B41F288339842F3D9032005E0D369E4
:1029800023F08053D361BBE7002002B070BD00BFCD
:1029900000100240007000400000424270470000FA
:1029A00090F83D30DBB2012B27D1022380F83D3077
:1029B0000268D36843F00103D3600368114A93426D
:1029C00010D0B3F1804F0DD0A2F59432934209D0CC
:1029D00002F58062934205D01A6842F001021A6043
:1029E000002070479A6802F00702062A07D01A688A
:1029F00042F001021A600020704701207047002059
:102A0000704700BF002C0140704770477047704707
:102A100010B5044603681A6912F0020F11D0DA6883
:102A200012F0020F0DD06FF002021A61012303773A
:102A300003689B6913F0030F70D0FFF7E6FF0023D4
:102A4000237723681A6912F0040F12D0DA6812F0A3
:102A5000040F0ED06FF004021A610223237723685B
:102A60009B6913F4407F5FD02046FFF7CEFF002321
:102A7000237723681A6912F0080F12D0DA6812F06F
:102A8000080F0ED06FF008021A6104232377236821
:102A9000DB6913F0030F4ED02046FFF7B6FF00238B
:102AA000237723681A6912F0100F12D0DA6812F037
:102AB000100F0ED06FF010021A61082323772368DD
:102AC000DB6913F4407F3DD02046FFF79EFF0023D3
:102AD000237723681A6912F0010F03D0DA6812F025
:102AE000010F36D123681A6912F0800F03D0DA681B
:102AF00012F0800F34D123681A6912F0400F03D00E
:102B0000DA6812F0400F32D123681A6912F0200FF0
:102B100003D0DA6812F0200F30D110BDFFF774FF38
:102B20002046FFF773FF8AE72046FFF76DFF204638
:102B3000FFF76CFF9BE72046FFF766FF2046FFF795
:102B400065FFACE72046FFF75FFF2046FFF75EFF1B
:102B5000BDE76FF001021A612046FDF7C1FFC1E732
:102B60006FF080021A61204600F077F8C3E76FF03B
:102B700040021A612046FFF74AFFC5E76FF02002C6
:102B80001A61204600F068F8C7E7000003681B4A96
:102B900090420AD0B0F1804F07D0A2F59432904213
:102BA00003D002F58062904203D123F070034A689B
:102BB0001343124A90420AD0B0F1804F07D0A2F5D9
:102BC0009432904203D002F58062904203D123F404
:102BD0004073CA68134323F080034A6913430360B8
:102BE0008B68C3620B688362044B984202D0012356
:102BF000436170470B690363F9E700BF002C014094
:102C000040B310B5044690F83D30F3B1022384F888
:102C10003D30214651F8040BFFF7B8FF012384F83B
:102C2000463084F83E3084F83F3084F8403084F8F1
:102C3000413084F8423084F8433084F8443084F8DA
:102C4000453084F83D30002010BD80F83C30FFF75F
:102C5000A5FEDBE7012070477047704784B001A8EC
:102C600080E80E00002004B0704703460020A3F85F
:102C700044004FF43F42A3F840207047B0F8403082
:102C800023F47C535B045B0CA0F8403000207047B9
:102C90000020704784B0844601A880E80E0001231C
:102CA000ACF840300020ACF84000ACF84400ACF880
:102CB000500004B0704710B5034691F800C030F8DA
:102CC0002C2092B222F4EC4222F0700292B2C87828
:102CD000032861D8DFE800F0555C0258002048F274
:102CE000800E42EA0E0223F82C2091F800C033F83F
:102CF0002C2092B222F4E04222F0700242EA0C024E
:102D000042EA0E0223F82C200A7B002A40F0DC80E5
:102D10004A78002A51D0B3F8502092B21A440C7865
:102D200002EB0412B1F806C04FEA5C0C4FEA4C0CFF
:102D3000A2F800C40C7833F8242012F0400F0CD015
:102D400033F8242092B222F4E04222F0700242F4DE
:102D5000004242F0C00223F82420CA78012A1DD084
:102D6000097833F8212092B222F4E04222F04002A6
:102D700082F0200242F4004242F0800223F8212037
:102D800017E142F40072AAE742F4C0620020A6E70D
:102D900042F480620020A2E70120A0E7097833F81E
:102DA000212092B222F4E04222F0400242F400429A
:102DB00042F0800223F82120FBE0B3F8502092B2C9
:102DC0001A440C7802EB0412B1F806C04FEA5C0C0E
:102DD0004FEA4C0CA2F808C4B3F8502092B21A443F
:102DE0000C7802EB0412B2F80CC4CCF3090CA2F874
:102DF0000CC40C693E2C39D94FEA541E14F01F0F35
:102E000001D10EF1FF3EB2F80CC41FFA8CFC4FEA60
:102E10008E2E1FFA8EFE4CEA0E0C4CF4004CA2F8DB
:102E20000CC40C7833F8242012F4804F0CD033F803
:102E3000242092B222F4E04222F0700242F4404296
:102E400042F0800223F82420097869BB33F821205E
:102E500092B222F4804222F0700282F4405242F494
:102E6000004242F0800223F82120A2E04CB9B2F8DF
:102E70000C446FEA44446FEA5444A4B2A2F80C44F0
:102E8000CFE74FEA540C14F0010F01D00CF1010C04
:102E9000B2F80C44A4B24FEA8C2C1FFA8CFC44EA22
:102EA0000C04A2F80C44BCE733F8212092B222F4BF
:102EB000804222F0700282F4005242F4004242F05A
:102EC000800223F8212074E0CA78022A72D00C789C
:102ED00033F8242092B222F4E24222F0700242F44B
:102EE000004242F0800223F82420B3F8502092B22E
:102EF0001A4491F800C002EB0C12B1F808C04FEA76
:102F00005C0C4FEA4C0CA2F800C4B3F8502092B20B
:102F10001A4491F800C002EB0C12B1F80AC04FEA53
:102F20005C0C4FEA4C0CA2F808C44A78002A50D135
:102F30000C7833F8242012F4804F0CD033F824207E
:102F400092B222F4E04222F0700242F4404242F097
:102F5000800223F824200C7833F8242012F0400F4C
:102F60000CD033F8242092B222F4E04222F0700216
:102F700042F4004242F0C00223F8242091F800C03D
:102F800033F82C2092B222F4804222F0700282F4B4
:102F9000405248F28004224323F82C20097833F869
:102FA000212092B222F4E04222F04002224323F890
:102FB000212010BD0C7833F8242092B222F4E04294
:102FC00022F0700242F4014242F0800223F82420F1
:102FD0008BE70C7833F8242012F4804F0CD033F8B0
:102FE000242092B222F4E04222F0700242F44042E5
:102FF00042F0800223F824200C7833F8242012F0C9
:10300000400F0CD033F8242092B222F4E04222F098
:10301000700242F4004242F0C00223F82420CA7831
:10302000012A1ED00C7833F8242092B222F4E04218
:1030300022F0400282F0200242F4004242F080027C
:1030400023F82420097833F8212092B222F4804218
:1030500022F0700242F4004242F0800223F8212064
:10306000A7E70C7833F8242092B222F4E04222F051
:10307000400242F4004242F0800223F82420E1E7BB
:103080000B7B002B46D14B7813B30A7830F82230F3
:1030900013F0400F0CD030F822309BB223F4E04301
:1030A00023F0700343F4004343F0C00320F82230C0
:1030B0000A7830F822309BB223F4E04323F0400337
:1030C00043F4004343F0800320F82230002070478F
:1030D0000A7830F8223013F4804F0CD030F82230C8
:1030E0009BB223F4E04323F0700343F4404343F0E6
:1030F000800320F822300A7830F822309BB223F483
:10310000804323F0700343F4004343F0800320F82E
:103110002230DBE74B78002B4ED10A7830F8223092
:1031200013F4804F0CD030F822309BB223F4E043EC
:1031300023F0700343F4404343F0800320F822302F
:103140000A7830F8223013F0400F0CD030F82230DB
:103150009BB223F4E04323F0700343F4004343F0B5
:10316000C00320F822300A7830F822309BB223F4D2
:10317000E04323F0700343F4004343F0C00320F81E
:1031800022300A7830F822309BB223F4804323F0B7
:10319000700348F2800C43EA0C0320F822300A78CE
:1031A00030F822309BB223F4E04323F0400343EA9B
:1031B0000C0320F8223089E70A7830F8223013F423
:1031C000804F0CD030F822309BB223F4E04323F040
:1031D000700343F4404343F0800320F822300A7820
:1031E00030F8223013F0400F0CD030F822309BB270
:1031F00023F4E04323F0700343F4004343F0C0039F
:1032000020F822300A7830F822309BB223F4E043D1
:1032100023F0700343F4404343F0800320F822304E
:103220000A7830F822309BB223F4E04323F04003C5
:1032300048F2800C43EA0C0320F822300A7830F878
:1032400022309BB223F4804323F0700343EA0C0343
:1032500020F822303AE74B788BB10A7830F82230E8
:103260009BB223F4E04323F0400383F0100343F4C4
:10327000004343F0800320F82230002070470A7892
:1032800030F822309BB223F4804323F0700383F4A0
:10329000805343F4004343F0800320F82230ECE7EE
:1032A0000B7B002B4BD14B7833B30A7830F82230AC
:1032B00013F0400F0CD030F822309BB223F4E043DF
:1032C00023F0700343F4004343F0C00320F822309E
:1032D000CB78012B33D00A7830F822309BB223F41C
:1032E000E04323F0400383F0200343F4004343F022
:1032F000800320F8223022E00A7830F8223013F4DC
:10330000804F0CD030F822309BB223F4E04323F0FE
:10331000700343F4404343F0800320F822300A78DE
:1033200030F822309BB223F4804323F0700383F4FF
:10333000405343F4004343F0800320F82230002040
:10334000704711B98023A0F84C300020704700204E
:10335000704700207047B0F8440080B270470020EA
:10336000704701335B0800EB420000F5806008E025
:103370000A7891F801C042EA0C2220F8042B0231AD
:10338000013B002BF4D1704770B505460C464A78D6
:10339000012A3BD00B7B002B40F0A6828B690A6987
:1033A000934240F284829B1A8B61B5F850309BB2F5
:1033B0002B44217803EB0113B3F80C14C1F309017A
:1033C000A3F80C143E2A40F27682510912F01F0F26
:1033D00000D10139B3F80C2492B2890289B20A43B0
:1033E00042F40042A3F80C24227835F822309BB234
:1033F00023F4804323F0700383F4405343F40043E9
:1034000043F0800325F82230002070BD8E690969E1
:103410008E4200D90E46237B73B3E378022B4DD046
:10342000236A9B1B2362217835F8213013F0400F6B
:1034300000F0F581002A40F0E281B5F850309BB2EF
:103440002B4403EB0113B3F80C24C2F30902A3F8D5
:103450000C243E2E40F2BA81710916F01F0F00D1E4
:103460000139B3F80C2492B2890289B20A4342F4BA
:103470000042A3F80C24CBE1B6B23346E28861697E
:103480002846FFF76EFFB5F850309BB22B442278E8
:1034900003EB0213A3F80464227835F822309BB2C0
:1034A00023F4E04323F0400383F0300343F400436C
:1034B00043F0800325F822300020A6E7236A9942D2
:1034C00080F06681227835F822309BB223F4E04305
:1034D00023F0700343F4014343F0800325F82230C6
:1034E000236A9B1B2362227835F8223013F0400FA9
:1034F00000F0A7806378B3BBB5F850309BB22B4483
:1035000003EB0213B3F80C24C2F30902A3F80C2452
:103510003E2E0FD9710916F01F0F00D10139B3F8F3
:103520000C2492B2890289B20A4342F40042A3F801
:103530000C241AE04EB9B3F80C246FEA42426FEA49
:10354000524292B2A3F80C240FE0720816F0010F59
:1035500000D00132B3F80C1489B2920292B20A433D
:10356000A3F80C2401E0012B30D0B3B26289616969
:103570002846FFF7F6FE636933446361236A2269D4
:1035800093422DD99B1B23626378002B45D1B5F85C
:1035900050309BB22B44227803EB0213B3F804247F
:1035A000C2F30902A3F804243E2E1DD9710916F0B6
:1035B0001F0F00D10139B3F8042492B2890289B2F5
:1035C0000A4342F40042A3F8042428E0B5F850303E
:1035D0009BB22B4403EB0213B2B2A3F80C24C4E752
:1035E000002222621E46CFE74EB9B3F804246FEAE8
:1035F00042426FEA524292B2A3F804240FE07208EA
:1036000016F0010F00D00132B3F8041489B292020F
:1036100092B20A43A3F8042401E0012B06D0B3B20E
:10362000228961692846FFF79CFE35E7B5F85030DE
:103630009BB22B44227803EB0213B2B2A3F804240A
:10364000EDE76378B3BBB5F850309BB22B4403EB86
:103650000213B3F80424C2F30902A3F804243E2E93
:103660000FD9710916F01F0F00D10139B3F80424E6
:1036700092B2890289B20A4342F40042A3F80424B8
:103680001AE04EB9B3F804246FEA42426FEA52429C
:1036900092B2A3F804240FE0720816F0010F00D0D4
:1036A0000132B3F8041489B2920292B20A43A3F829
:1036B000042401E0012B30D0B3B22289616928468D
:1036C000FFF74FFE636933446361236A22699342C3
:1036D0002DD99B1B23626378002B45D1B5F8503060
:1036E0009BB22B44227803EB0213B3F80C24C2F3F1
:1036F0000902A3F80C243E2E1DD9710916F01F0FE4
:1037000000D10139B3F80C2492B2890289B20A437C
:1037100042F40042A3F80C2428E0B5F850309BB2E4
:103720002B4403EB0213B2B2A3F80424C4E7002233
:1037300022621E46CFE74EB9B3F80C246FEA42422C
:103740006FEA524292B2A3F80C240FE0720816F00E
:10375000010F00D00132B3F80C1489B2920292B278
:103760000A43A3F80C2401E0012B06D0B3B262890E
:1037700061692846FFF7F5FD8EE6B5F850309BB23B
:103780002B44227803EB0213B2B2A3F80C24EDE72A
:10379000217835F8212092B222F4E24222F0700220
:1037A00042F4004242F0800225F82120B5F8502072
:1037B00092B22A44217802EB01129BB2A2F804349F
:1037C000228961692846FFF7CCFD65E64EB9B3F85A
:1037D0000C246FEA42426FEA524292B2A3F80C24E0
:1037E00016E0720816F0010F00D00132B3F80C1485
:1037F00089B2920292B20A43A3F80C2408E0B5F809
:1038000050309BB22B4403EB0113B2B2A3F80C244B
:10381000B3B2628961692846FFF7A3FD3CE6B2BBFB
:10382000B5F850309BB22B4403EB0113B3F80424DA
:10383000C2F30902A3F804243E2E0FD9710916F031
:103840001F0F00D10139B3F8042492B2890289B262
:103850000A4342F40042A3F8042421E04EB9B3F82D
:1038600004246FEA42426FEA524292B2A3F804245F
:1038700016E0720816F0010F00D00132B3F80414FC
:1038800089B2920292B20A43A3F8042408E0B5F880
:1038900050309BB22B4403EB0113B2B2A3F80424C3
:1038A000B3B2228961692846FFF75BFDF4E5002287
:1038B0008A611A4679E54AB9B3F80C246FEA4242A4
:1038C0006FEA524292B2A3F80C248DE5510812F02F
:1038D000010F00D00131B3F80C2492B2890289B2F1
:1038E0000A43A3F80C247FE5CB78022B4DD0012BA3
:1038F00040F02F8189692369994240F2E680C91A14
:10390000A161F2B9B5F8502092B22A44217802EBB5
:103910000112B2F80414C1F30901A2F804143E2BF9
:1039200040F2D780580913F01F0F00D10138B2F8C8
:10393000041489B2800280B2014341F40041A2F82C
:1039400004146278002A40F0F680B5F8502092B254
:103950002A44217802EB0112B2F80C14C1F30901D8
:10396000A2F80C143E2B40F2CD80590913F01F0F22
:1039700000D10139B2F80C349BB2890289B20B43F1
:1039800043F40043A2F80C342EE5F2B9B0F85030FD
:103990009BB203440A7803EB0213B3F80424C2F386
:1039A0000902A3F804240A693E2A31D9510912F008
:1039B0001F0F00D10139B3F8042492B2890289B2F1
:1039C0000A4342F40042A3F804246378002B51D147
:1039D000B5F850309BB22B44227803EB0213B3F8B6
:1039E0000C24C2F30902A3F80C2422693E2A28D928
:1039F000510912F01F0F00D10139B3F80C2492B213
:103A0000890289B20A4342F40042A3F80C2433E04D
:103A10004AB9B3F804246FEA42426FEA524292B2C2
:103A2000A3F80424D1E7510812F0010F00D00131AE
:103A3000B3F8042490B28A0292B20243A3F8042499
:103A4000C3E74AB9B3F80C246FEA42426FEA524224
:103A500092B2A3F80C240FE0510812F0010F00D02D
:103A60000131B3F80C2490B28A0292B20243A3F857
:103A70000C2401E0012B1DD0E369002B3FF4B4AC12
:103A8000227835F8221044F2400303EA01008B4308
:103A900002D000287FF4A8AC35F822309BB223F482
:103AA000E04323F0700343F4004343F0C00325F8E0
:103AB000223099E4B5F850309BB22B44227803EBC6
:103AC0000213228AA3F80C24D6E70023A3610B4635
:103AD00017E74BB9B2F804146FEA41416FEA51415C
:103AE00089B2A2F804142CE7590813F0010F00D092
:103AF0000131B2F8040480B2890289B20143A2F80C
:103B000004141EE74BB9B2F80C346FEA43436FEA72
:103B100053439BB2A2F80C3466E4590813F0010F2A
:103B200000D00131B2F80C3498B28B029BB203433F
:103B3000A2F80C3458E4012A7FF456ACB5F85020B2
:103B400092B22A44217802EB01129BB2A2F80C3403
:103B50004AE4012059E410B45C0800EB420000F58F
:103B6000806007E030F8042B0A70C2F307224A7025
:103B70000231013C002CF5D113F0010F01D0038874
:103B80000B7010BC704782B0002301934FF05F03AD
:103B900083F31188BFF36F8FBFF34F8F019B002B0F
:103BA000FCD002B07047000006480068006880F34F
:103BB000088862B661B6BFF34F8FBFF36F8F00DF27
:103BC00000BF000008ED00E04FF0807340F8043CB7
:103BD00021F0010140F8081C034B40F80C3C40F870
:103BE000202C4038704700BF873B000800000000D1
:103BF000074B19680868B0E8F00F80F30988BFF335
:103C00006F8F4FF0000080F311884EF00D0E70475B
:103C1000203600204FF05F0383F31188BFF36F8FCE
:103C2000BFF34F8F024A136801331360704700BF20
:103C30002C010020034A1368013B13600BB983F386
:103C4000118870472C0100200000000000000000D7
:103C5000EFF30980BFF36F8F0D4B1A6820E9F00F67
:103C600010602DE908404FF05F0080F3118800F0EC
:103C70007BFE4FF0000080F31188BDE80840196812
:103C80000868B0E8F00F80F30988BFF36F8F7047C2
:103C90002036002008B54FF05F0383F31188BFF38F
:103CA0006F8FBFF34F8F00F0F3FC28B14FF0E0238C
:103CB0004FF08052C3F8042D002383F3118808BD10
:103CC0004FF0E02300221A619A61024A5A610722EA
:103CD0001A6170473F19010010B54FF0E023D3F887
:103CE000202D42F47F02C3F8202DD3F8202D42F07E
:103CF0007F42C3F8202DFFF7E3FF0024044B1C6034
:103D0000FFF752FF00F030FEFFF73DFF204610BDE9
:103D10002C010020104A12F0070F1AD0D11D21F0FB
:103D20000701C1F5205313440A460C4802600021E4
:103D300041601344083B23F00703094803605960BE
:103D40001960991A51601360064B1960064B19608F
:103D500070474FF42053E8E7200D0020180D002095
:103D6000140D00200C0D0020100D0020154B1A46DC
:103D70001B688342FBD3516802EB010C844509D0D8
:103D8000416800EB010C634509D00360904218D0F4
:103D9000106070474068014451601046F0E710B46D
:103DA000094C2468A3420AD05B6819444160136837
:103DB0001B680360904200D0106010BC7047046024
:103DC000F8E77047180D0020140D002070B5054667
:103DD00000F050FC294B1B685BB175B105F007037F
:103DE000C3F11002113BAB4206D3AD1805D5002636
:103DF00034E0FFF78FFFF0E70025002D38D0204B8F
:103E00001B68AB4236D31F4A146801E022461C46A9
:103E10006368AB4202D22368002BF7D1174B1B68B3
:103E2000A34229D0166808362368136063685B1BB9
:103E3000102B17D8626812490B689B1A0B60124945
:103E400009688B4201D210490B6042F00042626067
:103E5000002323600D4A13680133136000F0D0FC87
:103E6000304670BD601943606560FFF77FFFE1E792
:103E70000026F3E70026F1E70026EFE7140D002007
:103E8000100D0020180D00200C0D0020080D002042
:103E900010B338B50446A0F1080550F8043C002BD7
:103EA00000DB38BD50F8082C002AFAD123F000437B
:103EB00040F8043C00F0DEFB54F8041C074A136889
:103EC0000B4413602846FFF751FF054A136801337E
:103ED000136000F095FCE4E7704700BF100D002070
:103EE000040D002000F1080343604FF0FF328260B0
:103EF000C3600361002303607047002303617047C0
:103F000030B40D68B5F1FF3F11D000F108031C4635
:103F10005B681A68AA42FAD963684B6099608C6042
:103F20006160086103680133036030BC7047046955
:103F3000F2E70369416882688A60416851605A68A3
:103F4000824206D0002202611A68013A1A6018689B
:103F5000704782685A60F5E710B50446FFF75AFECD
:103F6000A36B23B90124FFF765FE204610BD002492
:103F7000F9E708B50346026C62B10846D9681144F6
:103F8000D960D3F808C0614501D31968D960D968F0
:103F9000FCF772FA08BD38B50546FFF73BFE95F809
:103FA000454064B201E0013C64B2002C0ADD6B6A5A
:103FB00043B105F1240000F05BFD0028F3D000F0D0
:103FC00001FEF0E7FF2385F84530FFF733FEFFF7EA
:103FD00021FE95F8444064B201E0013C64B2002C3B
:103FE0000ADD2B6943B105F1100000F041FD002806
:103FF000F3D000F0E7FDF0E7FF2385F84430FFF74A
:1040000019FE38BD002844D038B50D460446C36BB0
:10401000002B40D0026C0021A2FB032313B919B17D
:10402000002039E00121FAE7FFF7F4FD2368E26B95
:10403000216C01FB0230A0600020A0636360013AA4
:1040400002FB0133E360FF2384F8443084F84530F9
:10405000B5B923691BB9FFF7EDFD01201CE004F1A0
:10406000100000F005FD0028F5D04FF0E0234FF0E0
:104070008052C3F8042DBFF34F8FBFF36F8FEAE771
:1040800004F11000FFF72EFF04F12400FFF72AFFD0
:10409000E1E700207047002038BD38B51D46049C7C
:1040A0000B4649B92460E063236401212046FFF7F1
:1040B000A9FF84F84C5038BD2260F4E7F0B583B016
:1040C000E0B10C46174605460023A4FB00129AB93E
:1040D000C3B904FB05F010F1510F15D85030FFF7AC
:1040E00075FE064658B100903B4600F1500221464D
:1040F0002846FFF7D2FF02E00123E9E70026304619
:1041000003B0F0BD0026FAE70026F8E7F0B585B069
:1041100004460F46019200263EE039462046FFF74E
:1041200028FF013DA563236923B9FFF783FD012023
:1041300005B0F0BD04F1100000F09AFC0028F4D0A6
:104140004FF0E0234FF08052C3F8042DBFF34F8FA0
:10415000BFF36F8FE9E7FFF76DFD0020E8E702A8E6
:1041600000F0F4FC012621E0002384F8443029E02B
:10417000002384F845302BE02046FFF70CFF00F0C9
:104180003FFB09E02046FFF706FF00F039FB204621
:10419000FFF7E2FE00283FD1FFF73CFDA56B002DA5
:1041A000BBD1019B002BD6D0002ED8D0FFF742FD0B
:1041B00000F060FAFFF72EFD94F844305BB2B3F1E3
:1041C000FF3FD1D094F845305BB2B3F1FF3FCFD081
:1041D000FFF730FD01A902A800F0C4FC0028D1D1EE
:1041E0002046FFF7B9FE0028C6D0019904F124004B
:1041F00000F012FC2046FFF7CEFE00F001FB002885
:10420000CAD14FF0E0234FF08052C3F8042DBFF322
:104210004F8FBFF36F8FBFE7002089E770B504466B
:104220000D461646FFF7F6FC94F844305BB2B3F146
:10423000FF3F0DD094F845305BB2B3F1FF3F0BD098
:10424000FFF7F8FCA36B5BB12046FFF7A4FE70BD3F
:10425000002384F84430EDE7002384F84530EFE78D
:104260003246294604F1240000F0E4FBECE70000AC
:10427000074B1B681B6823B9064B4FF0FF321A60CF
:104280007047034B1B68DB681A68024B1A60704763
:10429000903500202835002010B50446006BFFF74C
:1042A000F7FD2046FFF7F4FD10BD2DE9F0478046ED
:1042B0000D4617469946089EDDF824A00A9C9200F8
:1042C000A521206B03F03EFD236B07F18042013AEC
:1042D00003EB820727F007078DB14FF0000CBCF10C
:1042E000090F09D815F80C3004EB0C0282F83430B1
:1042F00013B10CF1010CF2E7002384F83D30042ED9
:1043000000D90426E662A664201DFFF7F6FD04F13D
:104310001800FFF7F2FD2461C6F10506A66164628C
:104320004A4641463846FFF74FFC2060BAF1000F7D
:1043300001D0CAF80040BDE8F087000038B500247D
:1043400007E004EB840293000E481844FFF7CAFD0F
:104350000134042CF5D90C4D2846FFF7C3FD0B4C56
:104360002046FFF7BFFD0A48FFF7BCFD0948FFF7ED
:10437000B9FD0948FFF7B6FD084B1D60084B1C60EE
:1043800038BD00BFBC350020A83500209435002082
:1043900078350020643500204C3500209035002011
:1043A0008C35002010B50446FFF734FC294A136809
:1043B00001331360284B1B685BB1284B1B686BB93A
:1043C000254B1B68DA6AE36A9A4207D8224B1C60C5
:1043D00004E0214B1C601368012B37D0204A13687E
:1043E000013313602364E36A01229A401D4908687F
:1043F00002430A601C4A03EB830302EB83035B68FE
:10440000A3609868E060211D41609960E36A03EB56
:104410008301880002EB8101616111580131115063
:10442000FFF708FC0D4B1B687BB10B4B1B68DA6A6E
:10443000E36A9A4209D24FF0E0234FF08052C3F86A
:10444000042DBFF34F8FBFF36F8F10BDFFF776FFC3
:10445000C4E700BF48350020203600203C3500204E
:104460002C35002040350020BC3500200F4B1B6848
:10447000D3B110B5FFF7CEFB0D4BDB68DC68201D18
:10448000FFF757FD0B4A1368013B1360074A136897
:10449000013B1360FFF7CEFB2046FFF7FDFE034B09
:1044A0001B68002BE6D110BD704700BF60350020AF
:1044B000643500204835002070B504460D46234B76
:1044C0001E68234B18680430FFF733FD48B9204BB2
:1044D0001B68DB6A01229A401E490B6823EA02032B
:1044E0000B60B4F1FF3F0DD03444194B1B685C6086
:1044F000A6421DD9184B1868154B19680431FFF7EF
:10450000FFFC70BD002DEFD0144A5168104B1868A5
:10451000816018688C68C46018680430606018682E
:10452000043088601B685A61136801331360E8E740
:104530000B4B1868064B19680431FFF7E1FC094B77
:104540001B68A342DDD9074B1C60DAE74435002025
:1045500020360020403500208C3500204C350020CE
:10456000903500202835002008B50BE04FF0E023FF
:104570004FF08052C3F8042DBFF34F8FBFF36F8FFE
:10458000FCF790FAFFF772FF024B1B68012BEDD886
:10459000F6E700BFBC3500202DE9F04385B00746A3
:1045A000884614461E469000FFF710FC18B381465B
:1045B0005820FFF70BFC0546B8B15822002103F044
:1045C000C1FBC5F830900023039302950D9B019326
:1045D0000C9B00933346224641463846FFF765FE62
:1045E0002846FFF7DFFE012007E04846FFF750FCB2
:1045F0004FF0FF3001E04FF0FF3005B0BDE8F08331
:1046000000B583B0144B019300230093802213491B
:104610001348FFF7C1FF012804D0124B1B6803B0F9
:104620005DF804FB00F046FC0128F6D14FF05F0373
:1046300083F31188BFF36F8FBFF34F8F0A4B4FF097
:10464000FF321A60094B01221A60094B00221A60DE
:10465000FFF742FBE1E700BF24350020E0850008BA
:104660006945000864860008283500203C35002094
:1046700044350020024A136801331360704700BFBD
:1046800020350020014B1868704700BF44350020DA
:10469000F8B5504B1B68002B40F091804E4B1C68C6
:1046A00001341C60CCB14D4B1B68A34222D90025BC
:1046B0004B4B1B68DB6A03EB83039A00494B9B5807
:1046C000012B00D90125484B1B68002B74D0474BA8
:1046D0001B68002B7BD12846F8BD454A1168454B25
:1046E000186810601960444A136801331360FFF7BB
:1046F000BFFDD8E7002534E0384B4FF0FF321A6099
:10470000D6E7364B1A60D3E7D96851603FE0002105
:104710009962116801391160DA6A012191403748C4
:104720000768394301602F4902EB82029000084478
:1047300042689A609068D86046609660DA6A02EBD8
:104740008206B00046185E610858013002EB820212
:1047500096008851DA6A224B1B68DB6A9A4200D9BC
:104760000125234B1B681B68002BC5D0204B1B6801
:10477000DB68DB685A689442C3D35A699868D96881
:1047800081609868486051681E1DB142BCD000210C
:1047900059611168013911609A6A002ABCD0D86940
:1047A000196A8160D8694860506803F1180188422D
:1047B000ADD1196A5160AAE7FCF775F987E70A4A93
:1047C000136801331360FCF76EF9002583E70125B8
:1047D00081E700BF20350020443500202835002027
:1047E00020360020BC35002038350020343500202C
:1047F000903500208C3500203035002040350020D9
:1048000038B5FFF707FA434B1A68013A1A601B687C
:10481000002B7AD1404B1B683BB9002476E0196A23
:10482000516015E0D968516021E000233B4A1268CD
:10483000002A47D0394BDB68DB689A6AD869196A65
:104840008160D8694860506803F118018842E6D059
:10485000002199621168013911605A699868D96814
:104860008160986848605168181D8142DAD0002143
:104870005961116801391160DA6A01219140284CAF
:10488000256829432160274902EB820201EB82025D
:1048900052689A609468DC6060609060DA6A02EB4B
:1048A0008200840001EB80005861085901300851F2
:1048B000D96A1D4A1268D26A9142B7D31B4A0121B4
:1048C0001160B3E70BB1FFF7D3FC194B1C6884B937
:1048D000164B1C68D4B14FF0E0234FF08052C3F860
:1048E000042DBFF34F8FBFF36F8F01240EE0013C07
:1048F00007D0FFF7CDFE0028F9D00C4B01221A603B
:10490000F5E70B4B00221A60E2E70024FFF792F96B
:10491000204638BD2035002048350020783500205D
:1049200040350020BC3500202036002034350020E2
:104930003835002010B550B94FF0E0234FF08052C9
:10494000C3F8042DBFF34F8FBFF36F8F10BD044624
:10495000FFF790FE00212046FFF7AEFDFFF750FF66
:104960000028F3D1E8E7000008B5264B1B681BB10F
:10497000254B01221A6008BD234B00221A60234BED
:104980001B681B6B1A68B2F1A53F03D15A68B2F1DC
:10499000A53F26D01D4B186819683431FCF784F800
:1049A0001B4B1B68B3FA83F3DBB2C3F11F03194837
:1049B00003EB83018A00024451684968516003EBAC
:1049C000830C4FEA8C0208320244914212D003EB6E
:1049D00083039A000F4B13445B68DA680B4B1A6031
:1049E000C9E79A68B2F1A53FD4D1DB68B3F1A53F1E
:1049F000D0D1D5E7486862469100064A0A44506023
:104A0000E5E700BF203500203435002020360020A7
:104A100040350020BC35002010B50C46044B196809
:104A20001831FFF76DFA01212046FFF745FD10BD53
:104A30002036002070B50346084659680B4C25689F
:104A4000E96125688E682E622568183575602568CD
:104A500018358D6021688B62196801311960114623
:104A60000AB14FF0FF30FFF727FD70BD2036002060
:104A700030B4C368DB689A6AD869196A8160D869FA
:104A80004860516803F1180081423ED000219962CC
:104A9000116801391160274A1268002A3BD15A690E
:104AA0009868D9688160986848605168181D81428B
:104AB0002ED000215961116801391160DA6A012193
:104AC00091401D4C2568294321601C4902EB82025C
:104AD00001EB820252689A609468DC6060609060CA
:104AE000DA6A02EB8200840001EB80005861085909
:104AF00001300851DA6A124B1B68DB6A9A4216D9F8
:104B00000120104B186030BC7047196A5160BDE736
:104B1000D9685160CDE70C4A5168D9618C681C6234
:104B2000606088609A62116801311160E2E70020DC
:104B3000E9E700BF2035002040350020BC350020CB
:104B4000203600203435002078350020034B1B68C8
:104B50000360034B1B684360704700BF3035002083
:104B60004435002070B504460D46FFF753F8134B4B
:104B700019686368C81A2A68B2F1FF3F19D0104E4D
:104B80003668D4F800C0B44505D08B4203D8002362
:104B90002B6001240EE0824203D800232B60012405
:104BA00008E05B1A13442B602046FFF7CFFF002478
:104BB00000E00024FFF73EF8204670BD4435002099
:104BC00030350020014B01221A6070473435002037
:104BD000064B1A6813682BB90123036023B9D36805
:104BE000186870470023F8E700207047343600202B
:104BF00008B54160006191420CD8D21A83699A428B
:104C000001D3012008BD011D094B1868FFF778F991
:104C10000020F7E79A4201D2994206D2011D054BC6
:104C20001868FFF76DF90020ECE70120EAE700BF04
:104C3000303600203436002070B504460D46164646
:104C400004E0A3691D44236A20469847A1692B46C6
:104C5000324629442046FFF7CBFF0028F1D170BD32
:104C600070B505460E460D4B1B68DB68DC68201DE1
:104C7000FFF75FF994F8283013F0040F07D123F001
:104C8000010384F82830236A2046984770BD3246D5
:104C900029462046FFF7D0FFF5E700BF3436002055
:104CA00008B505E0DB684FF0FF311868FFF7D8FF63
:104CB000054B1B681A68002AF4D1044A106802499F
:104CC0000860136008BD00BF343600203036002075
:104CD00038B50546FFF7D6FC0446074B1B688342F0
:104CE00005D800232B60044B1C60204638BDFFF71D
:104CF000D7FF01232B60F6E72436002070B582B081
:104D000006460C46FFF7B6FC01A8FFF7E1FF019B42
:104D100033BB0546E4B9B04213D22246711B124B95
:104D20001868FFF77BFAFFF76BFDD8B94FF0E02367
:104D30004FF08052C3F8042DBFF34F8FBFF36F8F36
:104D400010E0FFF75DFD29463046FFF789FF09E0D7
:104D5000064A126812680AB90124DEE71C46DCE73D
:104D6000FFF74EFD02B070BD2C360020303600201B
:104D700030B585B0002201A9334B1868FFF7C6F99A
:104D800000285FD0019B002BF4DB039C636913B107
:104D9000201DFFF7CEF86846FFF79AFF0546019BF6
:104DA000013B082BE6D8DFE803F0050529303F0575
:104DB0000529300094F8283043F0010384F82830A6
:104DC000029BA169024619442046FFF711FF002803
:104DD000D0D094F8283013F0040F07D123F001034A
:104DE00084F82830236A20469847C3E7A3692A46F7
:104DF000029919442046FFF71FFFF3E794F8283083
:104E000023F0010384F82830B4E794F8283043F005
:104E1000010384F828300299A16103460246014447
:104E20002046FFF7E5FEA5E794F8283013F0020FBF
:104E300004D023F0010384F828309BE72046FFF7D5
:104E400027F897E705B030BD2C36002000B583B0B9
:104E500001A8FFF7BDFE0199FFF750FFFFF788FF9C
:104E6000F6E7000038B5FEF7D5FE0D4B1B6813B111
:104E7000FEF7E0FE38BD0B4D2846FFF733F80A4C2D
:104E80002046FFF72FF8094B1D60094B1C600022DC
:104E90000C210A20FFF712F9014B1860E8E700BF68
:104EA0002C3600204C3600203836002034360020C6
:104EB0003036002000B583B0FFF7D4FF094B1B68E4
:104EC0006BB1094B01930423009300234FF48072CC
:104ED00006490748FFF760FB03B05DF804FB0020BC
:104EE000FAE700BF2C36002028360020E8850008AD
:104EF0004D4E000800B583B000F0B2FE00230193D0
:104F0000022300931E4B80221E491F48FFF744FBDB
:104F1000012800D000BF00230193022300931B4B04
:104F200080221B491848FFF737FB012800D000BF3B
:104F30000023019302230093164B80221649124846
:104F4000FFF72AFB012800D000BF002301930122B4
:104F50000092802211491248FFF71EFB012800D061
:104F600000BF002301930322009280220D490E48C6
:104F7000FFF712FB012800D000BFFFF741FBFEE75F
:104F8000E4000020F0850008695F0008A800002008
:104F9000F88500086C0000200086000808860008DC
:104FA000A15C000810860008815E000810B5D0F8EA
:104FB000B842D0F8BC325BB194F80002FF2807D0A9
:104FC0009B6894F8012221469847FF2384F8003219
:104FD000002010BD43230380004870477401002067
:104FE0004323038000487047B80100204323038017
:104FF00000487047300100200A23038000487047B2
:105000003402002038B50446D0F8B85201F0A8FBAD
:10501000C5F80C02D4F8B8324BB1D4F8BC32DB6816
:1050200005F50371D5F804029847002038BD022029
:10503000FCE710B5D0F8B822D0F8C042F2B101EBCD
:10504000810300EB8303DB694BB101EB810C04EBC3
:10505000CC04A46BB3FBF4FC04FB1C3323B100238E
:10506000C2F81432002010BD01EB810300EB830372
:105070000022DA61134601F063FBF3E70220F2E756
:10508000F0B583B006460C46D0F8B87200238DF810
:105090000730ADF804300B7813F0600527D0202DD1
:1050A00053D1CA88DAB113F0800F0CD0D0F8BC32DB
:1050B0009B68394660789847E2883946304600F068
:1050C0007FFD002544E04B7887F800328B7987F824
:1050D0000132CA88394600F088FD002538E0D0F852
:1050E000BC329B68002248789847002530E04F7812
:1050F0000A2F10D00B2F1CD01FBB90F89C32032B13
:1051000003D000F051FA022522E0022201A900F0AA
:1051100057FD3D461CE090F89C32032B03D000F075
:1051200043FA022514E001220DF1070100F048FDC9
:105130000EE090F89C32032B0AD000F035FA0225DD
:1051400006E000F031FA022502E000F02DFA022517
:10515000284603B0F0BD38B50446812101F0B9FA04
:105160000025E5620121204601F0B3FAC4F86C5134
:105170008221204601F0ADFA2564D4F8B8324BB153
:10518000D4F8BC325B689847D4F8B80201F0F2FA60
:10519000C4F8B852002038BD70B50446037CABBBE0
:1051A0004FF400730222812101F088FA0125E562A3
:1051B0004FF4007302222946204601F07FFAC4F81A
:1051C0006C51082303228221204601F077FA012343
:1051D00023644FF4077001F0C9FA0546C4F8B80219
:1051E00068B3D4F8BC321B6898470023C5F8143262
:1051F000C5F81832267CCEB94FF40073D5F80422D6
:105200000121204601F0A4FA304670BD402302225D
:10521000812101F053FA0125E5624023022229464B
:10522000204601F04BFAC4F86C51CAE74023D5F888
:1052300004220121204601F08BFA0026E4E7012632
:10524000E2E719B1C0F8BC12002070470220704795
:10525000D0F8B832C3F80812C3F810220020704703
:10526000D0F8B832C3F8041200207047D0F8B82242
:1052700092B108B5037C43B94FF40073D2F804220D
:10528000012101F065FA002008BD4023D2F8042274
:10529000012101F05DFAF6E70220704798B108B5E8
:1052A0000346D0F8B40210B10020C3F8B40209B12B
:1052B000C3F8B012012183F89C121A70184601F04D
:1052C000B3F9002008BD0220704719B1C0F8B4122C
:1052D000002070470220704708B501F0E7F9002070
:1052E00008BD08B5D0F8B4322BB11B68984700B997
:1052F00008BD0220FCE70220FAE708B5D0F8B43276
:105300005B689847002008BD38B5044600F52A754B
:10531000284600F035F90123C4F89432B4F8AE32CF
:10532000C4F8983294F8A81201F01F03012B08D09A
:10533000022B0BD07BB92946204600F0CFFA002083
:1053400038BD2946204600F0FDFAF8E729462046F8
:1053500000F028FBF3E701F08001204601F0C1F9DD
:10536000EDE738B504460D4691BB1346D0F89422BC
:10537000032A03D0052A24D0084633E0D0F8601170
:10538000D0F8642191420DD9891AC0F860118A427F
:1053900006D98AB21946204600F036FC284621E09C
:1053A00092B2F7E7D0F8B4321B691BB190F89C2297
:1053B000032A04D0204600F02FFC284612E098472C
:1053C000F8E70021C0F8941201F08BF9284609E0B3
:1053D000D0F8B4329B6933B190F89C22032A04D1EF
:1053E0009847002038BD0220FCE70220FAE738B5D4
:1053F00004460D46002953D11346D0F89422022AC0
:105400000CD0042A00D01AB98021204601F069F995
:1054100094F8A032012B3ED0284638BD026A416A7A
:105420008A421BD8C269B2FBF1F301FB13232BB9EB
:10543000914203D8D0F898329A421CD3D4F8B432AF
:10544000DB681BB194F89C22032A21D080212046DE
:1054500001F047F9204600F0EAFBD9E7521A026250
:1054600092B2194600F0B9FB00231A4619462046AD
:1054700001F06EF9CCE70022114600F0AEFB0021EE
:10548000C4F898120B460A46204601F061F9BFE7BE
:1054900020469847DAE7002384F8A0322846BCE784
:1054A000D0F8B4325B6933B190F89C22032A04D15E
:1054B00098470020B1E70220AFE70220ADE770B5C2
:1054C000044640230022114601F0F8F80125C4F8F3
:1054D00058514026C4F8646133460022802120469A
:1054E00001F0ECF8A561666284F89C520023C4F8D0
:1054F00094326360C4F8A432D4F8B8322BB1D4F833
:10550000B4325B68002120469847002070BD0174CA
:105510000020704790F89C3280F89D32042380F878
:105520009C320020704790F89C32042B01D0002060
:10553000704790F89D3280F89C32F8E708B590F8F3
:105540009C32032B01D0002008BDD0F8B432DB69B7
:10555000002BF8D09847F6E70346002002E0013020
:10556000C0B201331A78002AF9D1704708B54B88C8
:10557000012B00D008BDC0F8A43200F04DFBF9E7C4
:105580000B7803704B7843708B78CA7803EB022357
:1055900043800B794A7903EB022383808B79CA79A4
:1055A00003EB0223C380704710B50446802101F04D
:1055B00098F80021204601F094F810BD30B583B072
:1055C00005460C460023ADF806304A88130A013B15
:1055D000062B00F2A480DFE803F004182CA2A286B8
:1055E0009300D0F8B0321B680DF10601007C98479B
:1055F000BDF806201AB1E388002B40F09480E388C0
:10560000002B00F09A8003B030BD037C43B9D0F882
:10561000B4329B6A0DF10600984702234370E7E716
:10562000D0F8B432DB6A0DF10600984702234370CC
:10563000DEE7D2B2052A52D8DFE802F003101D2AB5
:105640003744D0F8B0325B6823B10DF10601007C1D
:105650009847CDE72146FFF7A7FFD4E7D0F8B0324F
:105660009B6823B10DF10601007C9847C0E72146F5
:10567000FFF79AFFC7E7D0F8B032DB6823B10DF12E
:105680000601007C9847B3E72146FFF78DFFBAE794
:10569000D0F8B0321B6923B10DF10601007C9847A8
:1056A000A6E72146FFF780FFADE7D0F8B0325B698F
:1056B00023B10DF10601007C984799E72146FFF7D9
:1056C00073FFA0E7D0F8B0329B6923B10DF106015A
:1056D000007C98478CE72146FFF766FF93E7214659
:1056E000FFF762FF8FE7037C33B9D0F8B4325B6B0E
:1056F0000DF1060098477BE72146FFF755FF82E74B
:10570000037C43B9D0F8B4321B6B0DF10600984707
:10571000072343706CE72146FFF746FF73E72146F6
:10572000FFF742FF6FE79A4228BF1A46ADF80620FE
:105730000146284600F044FA61E7284600F06CFA7A
:1057400061E738B504468B88F3B9CB88E3B94B8859
:105750007F2B19D803F07F0590F89C32032B0CD0D7
:1057600080F89E52294600F0E3FF204600F054FAEC
:1057700035B1022384F89C3209E0FFF715FF06E0FB
:10578000012384F89C3202E02046FFF70DFF38BD6C
:1057900038B504460D468978284B197001290ED872
:1057A00090F89C32022B0ED0032B21D02946FFF714
:1057B000FBFE224B19782046FFF79FFD02E02946A9
:1057C000FFF7F2FE38BD81B14160032380F89C32BF
:1057D000FFF787FD022803D0204600F01DFAF1E70D
:1057E00029462046FFF7E0FEECE700F015FAE9E76E
:1057F00089B1436899421DD0D9B2FFF77EFD0F4BA6
:10580000197861602046FFF76CFD02280DD0204614
:1058100000F002FAD6E7022380F89C324160FFF7DD
:105820006CFD204600F0F8F9CCE729462046FFF74A
:10583000BBFEC7E700F0F0F9C4E700BF6036002008
:1058400008B5CB88012B0AD190F89C32022B09D9DC
:10585000032B11D10122011D00F0B2F901E0FFF785
:10586000A3FE08BD5BB23BB10146002341F8083FEF
:10587000012200F0A5F9F4E7FFF796FEF1E708B57D
:1058800090F89C32013B022B12D8CB88022B0CD112
:105890000123C360D0F8A4320BB10323C3600222FA
:1058A00000F10C0100F08CF908BDFFF77DFEFBE76D
:1058B000FFF77AFEF8E708B590F89C32013B022B1F
:1058C00009D84B88012B00D008BD0023C0F8A432B2
:1058D00000F0A2F9F8E7FFF767FEF5E708B50B78E7
:1058E00003F06003202B05D0402B03D043B1FFF71A
:1058F0005BFE03E0D0F8B4329B689847002008BDF7
:105900004B78092B1BD8DFE803F011171A141A087B
:10591000051A0E0BFFF752FEF0E7FFF712FFEDE757
:10592000FFF736FFEAE7FFF78BFFE7E7FFF7A7FF91
:10593000E4E7FFF71BFEE1E7FFF7BDFFDEE7FFF758
:1059400033FEDBE738B505460C460B7803F0600301
:10595000202B06D0402B04D01BB1FFF725FE0020E2
:1059600038BD95F89C32013B022B16D82379012BC8
:105970000ED8D5F8B4329B68214628469847E3886C
:10598000002BECD10028EAD1284600F045F9E6E7E3
:1059900021462846FFF708FEE1E721462846FFF7A3
:1059A00003FEDCE770B505468B880C7804F06004D4
:1059B000202C07D0DAB2402C04D05CB1FFF7F4FD04
:1059C000002405E0D5F8B4329B68284698470024A7
:1059D000204670BD202C09D04E78012E33D0032EE6
:1059E0000AD0002E55D0FFF7DFFDF1E7D0F8B43232
:1059F0009B6898470446EBE790F89C32022B04D052
:105A0000032B11D0FFF7D0FDE2E70AB1802A03D1C2
:105A10002846FFF7C9FDDBE7114600F062FE802152
:105A2000284600F05EFED3E74B8823B91AB1802ADE
:105A300001D0CB881BB1284600F0EEF8C8E711462C
:105A400000F04FFEF7E790F89C32022B04D0032BB6
:105A500011D0FFF7A9FDBBE70AB1802A03D1284680
:105A6000FFF7A2FDB4E7114600F03BFE8021284677
:105A700000F037FEACE74B88002BA9D112F07F0F66
:105A800003D1284600F0C8F8A2E7114600F031FE25
:105A9000F7E790F89C02022806D0032829D0284670
:105AA000FFF782FD344693E70AB1802A13D113F041
:105AB000800F15D102F07F0202EB8202910001F506
:105AC000A8712944043100230B600222284600F00B
:105AD00077F834467CE72846FFF766FD344677E7DB
